S02500004344435F4D5343315F53414D4735355F58504C41494E5F3231303532372E7372656316
S214400000E8DB01200D9A4000DD9A4000DD9A400072
S214400010DD9A4000DD9A4000DD9A40000000000076
S214400020000000000000000000000000DD9A4000D4
S214400030DD9A400000000000DD9A4000DD9A400056
S214400040DD9A4000DD9A4000DD9A4000DD9A40008F
S214400050DD9A4000DD9A4000DD9A400019D8400005
S214400060DD9A4000DD9A40000000000091654000A7
S214400070A9654000DD9A4000DD9A4000DD9A4000C8
S214400080DD9A4000DD9A4000DD9A4000DD9A40004F
S214400090DD9A4000DD9A4000DD9A4000DD9A40003F
S2144000A0DD9A4000DD9A4000DD9A4000DD9A40002F
S2144000B0DD9A4000DD9A4000DD9A400000000000D6
S2144000C000000000000000000000000000000000EB
S2144000D000000000000000000000000000000000DB
S2144000E000000000000000000000000000000000CB
S2144000F0000000000000000000000000DD9A400004
S21440010091714000DD9A40000000000000000000B1
S214400110000000000000000000000000000000009A
S214400120000000000000000000000000000000008A
S214400130000000000000000000000000000000007A
S214400140000000000000000010B5054C237833B9CD
S214400150044B13B10448AFF300800123237010BD55
S214400160500C002000000000B81A41000C4B43B170
S2144001700C480D4910B5AFF300800C48036823B90E
S21440018010BD0A48036833B97047094B002BF7D0B7
S214400190BDE810401847064B002BF5D0184700BF67
S2144001A000000000B81A4100540C0020B81A410064
S2144001B00000000080B487B000AFF86008461146E3
S2144001C01A4603467B810B463B811346FB717A8970
S2144001D03B89D31A0733002B00DA0733DB10013B89
S2144001E0FA6813441B781A463B8903F0070342FA21
S2144001F003F37B613B8903F00702FB791344082B2A
S21440020016DD7A893B89D31A0733002B00DA073389
S214400210DB10023BFA6813441B781A463B8903F00E
S2144002200703C3F1080302FA03F37A6913437B61B9
S2144002303B8903F00702FB791344102B16DD7A89BD
S2144002403B89D31A0733002B00DA0733DB10033B16
S214400250FA6813441B781A463B8903F00703C3F138
S214400260100302FA03F37A6913437B613B8903F078
S2144002700702FB791344102B16DD7A893B89D31A83
S2144002800733002B00DA0733DB10033BFA681344CE
S2144002901B781A463B8903F00703C3F1100302FAA2
S2144002A003F37A6913437B61FB79012202FA03F375
S2144002B0013B7A6913407B617B6918461C37BD4613
S2144002C05DF8047B7047000080B483B000AF786070
S2144002D07B68072B25D801A252F823F0FD02400088
S2144002E003034000090340000F034000130340008F
S2144002F0170340001B0340001F0340004FF4FA431F
S21440030010E04FF400430DE04FF400430AE0084B82
S21440031008E0084B06E0084B04E0002302E0002318
S21440032000E0002318460C37BD465DF8047B704756
S21440033000127A000024F40000366E0180B500AF4B
S2144003400120044B9847024640F6723303FB02F303
S214400350184680BDC902400080B500AF024B9847A2
S2144003600346184680BD00BF3D03400080B489B0B8
S21440037000AF78607B68FB61FB69BB61BB697B61F2
S2144003807B695B093B613B6903F5001303F2077326
S2144003905B02DA6BFB69FB60FB6803F01F0301211D
S2144003A001FA03F31340002B14BF01230023DBB2F2
S2144003B018462437BD465DF8047B70472DE9F84F54
S2144003C000AF2C4B1B68002B13D12B4B01221A700D
S2144003D0284C2A4B98470246294BA3FB02235B0A2C
S2144003E04FF47A7202FB03F36360224B01221A60D9
S2144003F03CE0214B00221A70204B98470346194692
S2144004004FF000020B4614464FEA441B4BEAD36BB0
S2144004104FEA431A53465C465B1A64EB02044FEAC3
S214400420840949EA93794FEA830843464C465B1869
S21440043044EB0204E60046EA5376DD002B4634469B
S2144004401946224643F2AF634FF00004CD1842EB04
S2144004500406284631460B4C43F2B0624FF0000388
S214400460A04703460C461846074B984700BFBDE8D2
S214400470F88F00BF10E000E0780C002059034000E1
S214400480D34D6210A5DD40000100002080B400AFCF
S2144004900C4B1B7883F00103DBB2002B01D0012309
S2144004A00BE0094B1B6803F48033002B04D0064B4B
S2144004B000221A60012300E000231846BD465DF87E
S2144004C0047B7047780C002010E000E080B400AF5A
S2144004D0054B1B78002B02D0044B00221A6000BF4D
S2144004E0BD465DF8047B7047780C002010E000E0C5
S2144004F080B582B000AF41F6EE337B60002141F21A
S21440050001101E4B9847034683F00103DBB2002BD5
S21440051001D000232EE01A4B984738603B6803F022
S2144005200103002B06D07B685A1E7A60002BE5D16B
S21440053000231FE000BF002140F23A500F4B98477F
S214400540034683F00103DBB2002B01D0002311E009
S2144005500B4B9847034603F0C043B3F1804F08D196
S214400560084B1B68074A1268D27B42F00802D2B298
S214400570DA73012318460837BD4680BDE91F4000A0
S214400580BD214000700C002080B586B000AF034609
S214400590FB7141F6EE333B61002141F23710294BA7
S2144005A09847034683F00103DBB2002B01D00023BB
S2144005B043E000237B61FB79002B03D07B6943F04B
S2144005C080437B61796941F229101E4B9847034668
S2144005D083F00103DBB2002B01D000232DE01A4B41
S2144005E09847F860FB6803F00103002B06D03B6990
S2144005F05A1E3A61002BCFD100231EE000BF0021D7
S21440060040F23A500F4B9847034683F00103DBB263
S214400610002B01D0002310E00B4B9847034603F015
S2144006208043002B08D0094B1B68084A1268D27BCF
S21440063042F00802D2B2DA73012318461837BD4694
S21440064080BD00BFE91F4000BD214000700C002067
S21440065080B582B000AF002144F20550234B984746
S214400660034683F00103DBB2002B01D0012339E0BF
S2144006701F4B984778607B6803F0E043002B01D11E
S21440068001232FE041F288333B607B6803F4FC1380
S214400690194644F20550154B9847034683F001032C
S2144006A0DBB2002B01D000231CE0114B984778604A
S2144006B07B68002B06DB3B685A1E3A60002BE4D171
S2144006C000230FE000BF7B6803F00063002B04D0DC
S2144006D0084B1B680522DA7303E0064B1B680422AE
S2144006E0DA73012318460837BD4680BDE91F40002F
S2144006F0BD214000700C002090B58BB002AF09239E
S214400700BB610023BB750FE0BB7D3A4613440093A4
S2144007100023BA6900210020464CA047BB6901333C
S214400720BB61BB7D0133BB75BB7D032BECD93B78EE
S2144007301A467B781B021A44BB781B041A44FB7883
S2144007401B061344BB61BB69FB610023BB750FE00E
S214400750BB7D3A1D134400930023FA690021002014
S214400760344CA047FB690133FB61BB7D0133BB754D
S214400770BB7D022BECD93B79FF2B01D1002355E002
S2144007803B79222B02D1BB79002B12D07B79002BF0
S21440079001D100234AE07B791A46FB691344013BAA
S2144007A0FB61BB6903F58072FB699A42CDD2002398
S2144007B03CE000BFFB69033BFB610023BB750FE0D9
S2144007C0BB7D3A1D134400930023FA6900210020A4
S2144007D0184CA047FB690133FB61BB7D0133BB75F9
S2144007E0BB7D052BECD97B7AFB75FB7D322B01D983
S2144007F03223FB75FB7D03F007030F4A52F8233084
S2144008003B61FB7DDB08DBB203F00F030B4A52F87B
S2144008102330FB600A4B1B683A69F96801FB02F219
S2144008204FF47A7101FB02F21A600123184624370E
S214400830BD4690BD8D0C4000380D4100540D410022
S214400840700C002080B584B000AF78607B680022D2
S2144008501A704FF4D57145F20850114B984703462D
S21440086083F00103DBB2002B01D0012314E00D4BD3
S2144008709847F860FB68B3F1FF3F01D101230BE0D6
S214400880FB68C3F30B03B3F5D57F01D0002303E029
S2144008907B6801221A70012318461037BD4680BD7A
S2144008A0E91F4000BD21400090B589B002AF786096
S2144008B00023009301234FF4007200213348344C48
S2144008C0A047034683F00103DBB2002B01D0002390
S2144008D058E00023FB820FE007F1100318462D4B2B
S2144008E09847034683F00103DBB2002B01D0002378
S2144008F048E0FB8A0133FB82FB8A312BECD93B690B
S214400900DBB203F00203DAB27B681A70224B1B6834
S21440091003F112000C233E228021204CA0470246C1
S21440092040F6FF739A4229D10FE007F10C031846B0
S214400930184B9847034683F00103DBB2002B01D0E7
S21440094000231FE0FB8A0133FB82FB8A352BECD960
S214400950114B1B68FA6852085A600FE007F10C0307
S21440096018460C4B9847034683F00103DBB2002B36
S21440097001D0002306E0FB8A0133FB82FB8A7F2BF3
S214400980ECD9012318461C37BD4690BD0811080017
S21440099011204000D5214000700C0020B5014000D9
S2144009A090B583B002AF144B1B689B891904012392
S2144009B00093012310221148114CA047034683F0B0
S2144009C00103DBB2002B01D0002311E00A4B1B6869
S2144009D01233012118460B4B9847034683F0010318
S2144009E0DBB2002B01D0002302E0074B98470346BA
S2144009F018460437BD4690BD700C0020091108000B
S214400A001120400069224000F9224000B0B584B071
S214400A1000AF484B1B6803F1120004237A22802162
S214400A20454CA0470346013B032B0BD801A252F886
S214400A3023F000BF4F0A4000590A4000630A4000B6
S214400A406D0A40003B4B1B6812221A7413E0394B68
S214400A501B6814221A740EE0364B1B6822221A7446
S214400A6009E0344B1B6830221A7404E0314B1B6893
S214400A7040221A7400BF2F4B1B6803F11200082354
S214400A80602280212C4CA047F860FB6803F00703E7
S214400A902A4A52F82330BB60FB68DB0803F00F039A
S214400AA0274A52F823307B60224B1B68BA68796825
S214400AB001FB02F24FF47A7101FB02F21A601D4B01
S214400AC01B6803F112000C233E2280211A4CA047DB
S214400AD0024640F6FF739A4228D0164B1B6803F135
S214400AE012000C233E228021134CA04703465C1C78
S214400AF0104B1B6803F1120003232F2280210E4D5A
S214400B00A8470346023304FA03F33B60094B1C68CC
S214400B10084B1B6803F11200042350228021064D27
S214400B20A84702463B6893409B0A636000BF103765
S214400B30BD46B0BD700C0020B5014000380D4100E8
S214400B40940D4100B0B584B000AF364B1B6803F13E
S214400B501200082360228021334CA047F860FB68CF
S214400B6003F00703314A52F82330BB60FB68DB08CA
S214400B7003F00F032E4A52F823307B60294B1B6844
S214400B80BA68796801FB02F24FF47A7101FB02F20F
S214400B901A60244B1B6803F1120002237E22802138
S214400BA0214CA0470346002B0FD01E4B1C681D4B04
S214400BB01B6803F112001623302280211A4DA847E5
S214400BC0034601335B02636028E0164B1B6803F163
S214400BD012000C233E228021134CA04703465C1C87
S214400BE0104B1B6803F1120003232F2280210E4D69
S214400BF0A8470346023304FA03F33B60094B1C68DC
S214400C00084B1B6803F11200042350228021064D36
S214400C10A84702463B6893409B0A636000BF103774
S214400C20BD46B0BD700C0020B5014000380D4100F7
S214400C30540D410080B582B000AF114B7B6000215F
S214400C4041F60D300F4B9847034683F00103DBB265
S214400C50002B01D000230EE00B4B98470346DBB237
S214400C60002B06D07B685A1E7A60002BE7D1002303
S214400C7001E000BF012318460837BD4680BD00BFCF
S214400C80400D0300E91F4000BD21400080B582B002
S214400C9000AF3A601A460346FB710B46BB711346DB
S214400CA07B713B691B781A46FB79DB071A43BB7995
S214400CB01B071A437B79DB061A433B685B021343E8
S214400CC0194641F234300A4B9847034683F00103F5
S214400CD0DBB2002B01D0002306E0064B98470346C4
S214400CE0DAB23B691A70012318460837BD4680BD04
S214400CF0E91F4000BD21400090B585B002AF364B9D
S214400D001B689B891B04194641F23710334B9847A2
S214400D10034683F00103DBB2002B01D0002357E0EB
S214400D20012300930123082200212D482D4CA04783
S214400D30034683F00103DBB2002B01D0002347E0DB
S214400D403B4601211846284B9847034683F001034B
S214400D50DBB2002B01D000233AE0244B98470346F1
S214400D6083F00103DBB2002B01D0002330E038468D
S214400D700423382240211E4CA0470346012B09D0AD
S214400D80012B02D3022B0AD01CE0134B1B68102207
S214400D901A741CE0104B1B681A221A7417E0384667
S214400DA001232F224021124CA0470346012B04D199
S214400DB0094B1B6830221A7409E0074B1B68202237
S214400DC01A7404E0044B1B6810221A7400BF0123F7
S214400DD018460C37BD4690BD700C0020E91F4000F9
S214400DE0331108001120400069224000F9224000DB
S214400DF0B501400080B582B000AF0346FB71FB7979
S214400E00002B01D00423A5E0FA7954491346DB00B1
S214400E1013449B000B4408331B681846504B9847B6
S214400E200346002B18D0FA794C491346DB0013448E
S214400E309B000B440E331B78012B01D1494B98473E
S214400E40FA7946491346DB0013449B000B440E33A5
S214400E5004221A7002237DE0FA7940491346DB00EB
S214400E6013449B000B440E331B78042B0DD1FA79A8
S214400E703A491346DB0013449B000B440E330122D1
S214400E801A70394B9847022364E0FA79334913467F
S214400E90DB0013449B000B440E331B78012B30D1F0
S214400EA0324B9847034683F00103DBB2002B01D058
S214400EB002234FE0FA7929491346DB0013449B008E
S214400EC00B440E3302221A70FA7924491346DB008B
S214400ED013449B000B44264A1A60FA791F4913466E
S214400EE0DB0013449B000B44113301221A70FA793D
S214400EF01A491346DB0013449B000B44223300225E
S214400F001A70FA7915491346DB0013449B000B44CC
S214400F100E331B78032B01D103231BE0154AFB79C4
S214400F201370FA791346DB0013449B000B4A1344B4
S214400F30114A1360114B9847FA7908491346DB006B
S214400F4013449B000B440E331B78022B0CBF01232B
S214400F500023DBB218460837BD4680BDFC000020A3
S214400F606D034000CD044000BD0340008D044000AA
S214400F70801A06006C0C0020700C0020810F400088
S214400F8098B500AF0A4B18780A4B1B681968094B8E
S214400F901B685A7C074B1B6893F82230002B14BF03
S214400FA001230023DBB2044CA04700BF98BD00BF1E
S214400FB06C0C0020700C00200D1F400080B500AF68
S214400FC0054B1B78002B04D1034B1B781846034B6C
S214400FD0984700BF80BD00BF6C0C00206D1F4000CE
S214400FE080B582B000AF0023FB715C4B1B680122CA
S214400FF0DA735A4B1B6800221A74584B1B6800223F
S2144010009A81574B984700214FF48850554B984744
S214401010034683F00103DBB2002B01D0002399E0A6
S214401020FB1D1846504B9847034683F00103DBB23E
S214401030002B01D000238DE04C4B9847034683F0AD
S2144010400103DBB2002B01D0002383E0434B1B6837
S214401050DB7B03F00103002B1ED0FB791846444B84
S2144010609847034683F00103DBB2002B07D03B4B87
S2144010701B680222DA733F4B984703466AE000211A
S21440108041F23B10374B9847034683F00103DBB2EF
S214401090002B01D000235DE0304B1B68DB7B03F068
S2144010A00103002B15D0344B9847034683F00103C9
S2144010B0DBB2002B01D000234CE0304B9847304B3E
S2144010C09847034683F00103DBB2002B01D0002390
S2144010D040E0224B1B68DB7B03F00403002B09D067
S2144010E0284B9847034683F00103DBB2002B01D020
S2144010F000232FE0194B1B68DB7B03F00103002B1A
S21440110014D0164B1B68DB7B03F00803002B0DD175
S2144011104FF4007141F21010124B9847034683F08B
S2144011200103DBB2002B01D0002313E00B4B1B68FE
S214401130DB7B03F00103002B09D0134B9847034693
S21440114083F00103DBB2002B01D0002302E00F4BFB
S2144011509847012318460837BD4680BD700C0020CE
S214401160A51F4000E91F40004508400051064000CA
S2144011708905400091114000A1094000450B400000
S214401180F90C4000F9064000350C4000810F400045
S21440119080B582B000AF00214FF488502E4B984760
S2144011A0034683F00103DBB2002B01D000234EE060
S2144011B02A4B9847034683F00103DBB2002B01D04D
S2144011C0002344E0002141F23B10234B984703465E
S2144011D083F00103DBB2002B01D0002337E0204B25
S2144011E09847034683F00103DBB2002B01D000236F
S2144011F02DE01C4B98471C4B1B681B7C3F2B0BD988
S214401200FB1D1846194B9847034683F00103DBB293
S214401210002B01D000231AE04FF4007141F2101069
S2144012200D4B9847034683F00103DBB2002B01D0F9
S21440123000230CE00E4B9847034683F00103DBB2D5
S214401240002B01D0002302E00A4B984701231846A2
S2144012500837BD4680BD00BFE91F4000F10440008E
S214401260A10940000D0A4000700C0020A90840006B
S214401270350C4000810F400080B582B000AF0B2097
S2144012800E4B98470023FB710CE0FA790C49134645
S214401290DB0013449B000B440E3304221A70FB7988
S2144012A00133FB71FB79002BEFD0064BFF221A70FF
S2144012B0054B984700BF0837BD4680BD1D684000B7
S2144012C0FC0000206C0C0020D11E400080B584B08D
S2144012D000AF0346FB71FB791846114B984703460F
S2144012E0FB73FB7B012B03D00E4B9847FB7B13E035
S2144012F00D4B98470346002B07D00C4B1B6800222B
S2144013009A73084B9847012306E0084B1B68032254
S2144013109A73044B9847032318461037BD4680BD42
S214401320F50D4000BD0F4000E10F4000700C00205E
S21440133080B582B000AF0346FB71FB791846084B78
S21440134098470346002B01D0002304E0054B9847FE
S214401350054B1B68DB7B18460837BD4680BD00BF83
S214401360F50D4000BD0F4000700C002080B582B0E7
S21440137000AF0346FB71FB791846084B9847034677
S214401380002B01D0002304E0054B9847054B1B6813
S2144013905B6818460837BD4680BD00BFF50D400067
S2144013A0BD0F4000700C002080B483B000AF0346F1
S2144013B0FB71002318460C37BD465DF8047B70472A
S2144013C090B589B002AF03463960FB711346BB80C7
S2144013D0FB791846244B98470346FB73FB7B002B50
S2144013E001D0FB7B3BE0214B9847034683F001034B
S2144013F0DBB2002B03D01E4B984705232FE0BB885B
S214401400012B02D91B4B7B6101E01B4B7B611B4BC5
S2144014101B68DB7B03F00803002B02D03B683B6174
S21440142002E03B685B023B61BA88012300931346A7
S2144014304FF4007239697869114CA047034683F02F
S2144014400103DBB2002B03D0094B9847052306E087
S2144014500C4ABB8813800C4ABB881380002318466E
S2144014601C37BD4690BD00BFF50D4000350C400012
S214401470BD0F40001211100011110800700C002022
S21440148011204000760C0020740C002080B582B0FD
S21440149000AF78600B467B807B88194678680C4B9B
S2144014A09847034683F00103DBB2002B04D0094B78
S2144014B000221A80052307E0064B1A887B88D31A39
S2144014C09AB2044B1A80002318460837BD4680BDA2
S2144014D069224000760C002080B582B000AF0346FB
S2144014E0FB711B4B9847034683F00103DBB2002B8E
S2144014F001D0052327E0FB79002B03D0154B0022B3
S2144015001A8005E0134B1B88002B01D000231AE0FD
S214401510114B1B88012B03D1104B9847002312E038
S214401520002143F20C100E4B9847034683F001030C
S214401530DBB2002B04D0002143F20C10084B984736
S214401540064B9847002318460837BD4680BD00BF67
S214401550F9224000760C0020740C0020BD0F40009D
S214401560E91F400090B589B002AF03463960FB7171
S2144015701346BB80FB791846234B98470346FB73BC
S214401580FB7B002B01D0FB7B3AE0FB7918461F4BD8
S21440159098470346002B03D01D4B984707232FE060
S2144015A0BB88012B02D91B4B7B6101E01A4B7B6148
S2144015B01A4B1B68DB7B03F00803002B02D03B680A
S2144015C03B6102E03B685B023B61BA8801230093C3
S2144015D013464FF4007239697869114CA0470346A8
S2144015E083F00103DBB2002B03D0094B9847052359
S2144015F006E00C4ABB8813800B4ABB881380002346
S21440160018461C37BD4690BDF50D4000A913400056
S214401610BD0F40001991100018910800700C002072
S21440162011204000760C0020740C002080B582B05B
S21440163000AF78600B467B807B88194678680C4BF9
S2144016409847034683F00103DBB2002B04D0094BD6
S21440165000221A80052307E0064B1A887B88D31A97
S2144016609AB2044B1A80002318460837BD4680BD00
S21440167009234000760C002080B582B000AF0346B8
S214401680FB71134B9847034683F00103DBB2002BF4
S21440169001D0052317E0FB79002B03D00D4B002229
S2144016A01A8005E00B4B1B88002B01D000230AE074
S2144016B0094B1B88012B03D1084B9847002302E0B7
S2144016C0064B9847002318460837BD4680BD00BFE6
S2144016D0BD234000760C0020740C0020BD0F400057
S2144016E080B582B000AF0346FB71FB791846154BB8
S2144016F098470346012B17D0022B17D0002B1BD13F
S214401700FB79114AD35C002B01D0022315E0FB790C
S21440171018460E4B9847034603F00303002B01D0B0
S21440172000230AE0022308E0032306E0FB79064A8A
S2144017300021D154022300E0012318460837BD4655
S21440174080BD00BFCD1240007C0C0020311340000D
S21440175080B500AF0020024B98470346184680BD30
S214401760E116400080B582B000AF03463960FB7199
S214401770FB791846074B984703465B005A1E3B6862
S2144017801A60FB791846044B9847034618460837B4
S214401790BD4680BD6D134000E116400080B582B066
S2144017A000AF786079680020034B98470346184698
S2144017B00837BD4680BD00BF6517400080B483B083
S2144017C000AF03460A46FB711346BB71FB790549D9
S2144017D0BA79CA54012318460C37BD465DF8047BD7
S2144017E0704700BF7C0C002080B582B000AF034637
S2144017F0FB71FB7919460020034B98470346184671
S2144018000837BD4680BD00BFBD17400080B582B0DA
S21440181000AF0346FB71FB791846034B98470346D7
S21440182018460837BD4680BDA913400080B500AFB6
S2144018300020024B98470346184680BD0D184000CE
S21440184080B483B000AF0346FB71012318460C37C3
S214401850BD465DF8047B704780B500AF0020024B64
S21440186098470346184680BD4118400090B585B05D
S21440187000AF03463960FB711346BB800123FB7300
S214401880BA88FB7939681846314B98470346002B8F
S21440189005D0022B01D1022356E0012354E000BFBD
S2144018A0BB880133BB8149E0BB89002B11D0BB8983
S2144018B003F001039BB2002B01D1264B00E0264BE0
S2144018C001211846254B98470346002B01D001239B
S2144018D03AE0FB7B83F00103DBB2002B1FD0BB89D1
S2144018E003F001039BB2002B01D11B4900E01949CC
S2144018F000234FF400720120194CA047034683F0A2
S2144019000103DBB2002B0CD0FB7B83F00103DBB280
S214401910002B02D00120134B9847012314E00023EC
S214401920FB73BB89002B07D000200E4B984703461D
S214401930002B01D0012307E00023FB73BB895A1E0E
S214401940BA81002BB0D1002318461437BD4690BD4F
S214401950C113400094A9012094A701208D14400093
S214401960954C4000D914400080B582B000AF7860F6
S2144019700B467B807B881A4679680020034B984745
S214401980034618460837BD4680BD00BF6D18400068
S21440199090B585B000AF03463960FB711346BB80F7
S2144019A00123FB73BA88FB7939681846324B98474F
S2144019B00346002B05D0022B01D1022357E001231A
S2144019C055E000BFBB880133BB814AE0FB7B83F018
S2144019D00103DBB2002B11D0BB8903F001039BB29D
S2144019E0002B01D1254B00E0254B01211846254B05
S2144019F098470346002B01D0012338E0BB89002BD3
S214401A001FD0BB8903F001039BB2002B01D11C49B8
S214401A1000E01A4900234FF4007200201A4CA047F9
S214401A20034683F00103DBB2002B0AD0FB7B83F036
S214401A300103DBB2002B02D00120144B9847012350
S214401A4015E0FB7B83F00103DBB2002B07D00020C0
S214401A500E4B98470346002B03D0012307E0002394
S214401A60FB73BB895A1EBA81002BAFD100231846A0
S214401A701437BD4690BD00BF6515400094A90120AF
S214401A8094A701202D164000954C40007916400042
S214401A9080B582B000AF78600B467B807B881A4664
S214401AA079680020034B9847034618460837BD46DA
S214401AB080BD00BF9119400080B584B000AF03469A
S214401AC0B9607A60FB73FB7B0122B9681846114BFC
S214401AD098470346002B05D0022B01D1022314E081
S214401AE0012312E000BF012178680B4B984703465C
S214401AF0002B01D0012308E00020084B98470346FE
S214401B00002B01D0012300E0002318461037BD46C5
S214401B1080BD00BFC11340008D144000D914400062
S214401B2080B582B000AF786039603A687968002046
S214401B30034B9847034618460837BD4680BD00BF4E
S214401B40B91A400080B584B000AF0346B9607A60E9
S214401B50FB73FB7B0122B9681846114B9847034636
S214401B60002B05D0022B01D1022314E0012312E002
S214401B7000BF012178680B4B98470346002B01D0E5
S214401B80012308E00020084B98470346002B01D06D
S214401B90012300E0002318461037BD4680BD00BF35
S214401BA0651540002D1640007916400080B582B07D
S214401BB000AF786039603A6879680020034B9847F0
S214401BC0034618460837BD4680BD00BF451B40004B
S214401BD080B483B000AF78607B6801221A6000BF93
S214401BE00C37BD465DF8047B704780B483B000AFC9
S214401BF078607B681B6903F48033002B01D0012397
S214401C0000E0002318460C37BD465DF8047B70475D
S214401C1080B485B000AF78600B46FB700023FB7342
S214401C201EE07B685A1C7A601B78BB7300237B736C
S214401C3013E0FB7B5B00FB73BA7BFB7B5340DBB262
S214401C405BB2002B03DAFB7B83F00903FB73BB7BA1
S214401C505B00BB737B7B01337B737B7B072BE8D9B5
S214401C60FB785A1EFA70002BDBD1FB7B5B005BB225
S214401C7043F001035BB2FB73FB7B18461437BD464B
S214401C805DF8047B7047000080B582B000AFFF234C
S214401C90FB70FB1C012219460F48104B9847104B0F
S214401CA07B60FB1C012219460B480C4B9847FB1CDB
S214401CB0012219460848094B98477B685A1E7A60A5
S214401CC0002B01D1002303E0FB78FF2BEFD101234B
S214401CD018460837BD4680BD00840040592A40005B
S214401CE0400D030080B582B000AF0023FB70164B5A
S214401CF07B607B685A1E7A60002B04D1134B04220B
S214401D001A7000231CE0FB1C012219461048114B98
S214401D109847FB7803F0F003002B0DD1FB7803F0D7
S214401D200703002B03D0094B07221A7002E0074B2B
S214401D300B221A70002303E0FB78FE2BD9D1012337
S214401D4018460837BD4680BD20A107007E0C0020FF
S214401D5000840040592A400080B582B000AF3B1D49
S214401D60022219460348044B984700BF0837BD4631
S214401D7080BD00BF00840040592A400080B582B034
S214401D8000AFFF23FB71FB1D012219460A480B4B8F
S214401D9098470B4B1B88012B02D1FE23BB7101E0F9
S214401DA0FC23BB71BB1D012219460348034B9847D1
S214401DB000BF0837BD4680BD00840040E52940008E
S214401DC08E0C002080B582B000AF4FF6FF73BB800C
S214401DD03B1D022219461748174B9847FB1D012208
S214401DE019461448154B9847FB7903F01003002B0F
S214401DF004D1FB7903F00103002B04D1104B0122E0
S214401E001A70002312E0FB7903F01E03042B0BD05C
S214401E100A2B04D10A4B08221A70002306E0084B0E
S214401E200A221A70002301E000BF01231846083733
S214401E30BD4680BD00840040E5294000592A400048
S214401E407E0C002080B582B000AF1A4B1B88012B59
S214401E5001D101232AE0174B1B881946164B1B68F5
S214401E60164A1288B3FBF2F3994201D901231DE0CA
S214401E70FF23FB71FB1D012219461148114B984761
S214401E80FD23FB71FB1D012219460D480D4B98475B
S214401E900D4B9847034683F00103DBB2002B04D07A
S214401EA00A4B05221A70002300E001231846083723
S214401EB0BD4680BD8E0C0020880C00208C0C002077
S214401EC000840040E5294000891C40007E0C00202C
S214401ED080B500AF084B00221A700848084B984758
S214401EE00346002B05D10548064B98470348064B4A
S214401EF0984700BF80BD00BF7E0C00200084004095
S214401F00EB1B40001D284000D11B400090B585B01B
S214401F1002AF396011461A460346FB710B46BB7149
S214401F2013467B710C4B00221A70FB799B000B4AC0
S214401F309918002300933B6800220948094CA047A3
S214401F40FB799B00054A134419460548064B9847BB
S214401F5000BF0C37BD4690BD7E0C0020800C002094
S214401F60008400409D2840005129400080B582B042
S214401F7000AF0346FB71074B00221A70FB799B00AB
S214401F80054A134419460548054B984700BF08378D
S214401F90BD4680BD7E0C0020800C002000840040A2
S214401FA0A929400080B582B000AFFF23BB710B4B20
S214401FB000221A700023FB7108E0BB1D012219465F
S214401FC00748084B9847FB790133FB71FB79092B8F
S214401FD0F3D900BF0837BD4680BD00BF7E0C002049
S214401FE000840040E529400090B585B002AF786097
S214401FF03960002300930023002239687868034C38
S214402000A047034618460C37BD4690BD11204000F9
S21440201080B588B000AFF860B96011461A460B46E6
S214402020FB801346BB80FF23BB775A4B00221A70B7
S214402030FB68DBB203F03F03DBB243F04003DBB2A6
S2144020403B76BB681B0EDBB27B76BB681B0CDBB2F9
S214402050BB76BB681B0ADBB2FB76BB68DBB23B7762
S21440206007F11803052118464B4B984703467B77E4
S21440207007F11E03012219464848494B984707F185
S2144020801803062219464548454B9847FF23FB75DB
S21440209007F11703012219464048424B9847072349
S2144020A0FB7707F11703012219463C483D4B9847FA
S2144020B0FB7D5BB2002B0ADAFB7F013BFB77FB7FA5
S2144020C0002BEED1334B02221A7000235EE000BF95
S2144020D0FB7D1A46344B1A60FB7D03F00803002B49
S2144020E004D02C4B06221A7000234FE0FB7D03F0F1
S2144020F00403002B04D0274B09221A70002345E026
S214402100FB7D23F00103002B04D0224B01221A70E2
S21440211000233BE0FB6803F40053002B0CD0234B1A
S2144021209847034683F00103DBB2002B04D0194BDB
S21440213003221A70002329E0FB6803F40073002B87
S2144021400BD0194B00221A60012217491348154B31
S2144021509847154B1B68144A1360FB6803F480636A
S214402160002B09D0042210490C480E4B98470E4BC2
S2144021701B681BBA0C4A13600D4AFB8813800D4A35
S214402180BB8813800C4B00221A6001231846203768
S214402190BD4680BD7E0C0020111C400000840040DF
S2144021A0E5294000592A4000840C0020891C400044
S2144021B08C0C00208E0C0020880C002080B400AFD1
S2144021C0034B1B681846BD465DF8047B704700BF4E
S2144021D0840C002080B582B000AF78601B4B002294
S2144021E01A701B4B1B681B4A1288B3FBF2F102FBAA
S2144021F001F29B1A002B09D1174B9847034683F0F0
S2144022000103DBB2002B01D000231BE004227968D7
S2144022101248134B98477B681A687B681A600C4BC9
S2144022201B6804330A4A1360094B1B68094A128824
S214402230B3FBF2F102FB01F29B1A002B01D1094BD2
S2144022409847012318460837BD4680BD7E0C0020BF
S214402250880C00208C0C0020E51C400000840040C8
S214402260592A4000591D400080B584B000AF7860C0
S2144022700B467B80194B00221A700023FB6022E03D
S214402280174B9847034683F00103DBB2002B01D07F
S21440229000231EE07A68FB68D118124B1B881A464A
S2144022A01148124B98470F4B1B881A46FB6813443D
S2144022B0FB600C4B1B881A460D4B1B6813440C4A9C
S2144022C013600C4B98477B885A1E7A80002BD7D1D8
S2144022D0012318461037BD4680BD00BF7E0C002047
S2144022E0E51C40008C0C002000840040592A400029
S2144022F0880C0020591D400080B400AF01231846CA
S214402300BD465DF8047B704780B584B000AF78600A
S2144023100B467B80214B00221A700023FB6032E084
S2144023201F4B98477A68FB68D1181E4B1B881A4685
S2144023301D481E4B98471B4B1B881A46FB68134488
S214402340FB60184B1B881A46194B1B681344184AE7
S2144023501360184B9847034683F00103DBB2002B0B
S21440236001D0002315E07B88002B0CD0124B9847F9
S214402370034683F00103DBB2002B04D0074B052253
S2144023801A70002305E07B885A1E7A80002BC7D13E
S214402390012318461037BD4680BD00BF7E0C002086
S2144023A07D1D40008C0C002000840040E529400044
S2144023B0880C0020C51D4000891C400080B500AF39
S2144023C0084B9847034683F00103DBB2002B04D04A
S2144023D0054B05221A70002302E0044B984703463B
S2144023E0184680BD891C40007E0C0020451E4000DB
S2144023F080B584B000AF786039600023FB607B68AE
S214402400494A93420DD100BF07F10C03194678683C
S214402410464B98470346002BF6D1FB68DAB23B683A
S2144024201A707B68424A93420DD100BF07F10C03F5
S214402430194678683D4B98470346002BF6D1FB6813
S214402440DAB23B681A707B683A4A93420DD100BFB5
S21440245007F10C0319467868344B98470346002B1F
S214402460F6D1FB68DAB23B681A707B68324A934210
S2144024700DD100BF07F10C03194678682B4B9847DF
S2144024800346002BF6D1FB68DAB23B681A707B68CD
S2144024902A4A93420DD100BF07F10C0319467868CB
S2144024A0224B98470346002BF6D1FB68DAB23B68CE
S2144024B01A707B68224A93420DD100BF07F10C0385
S2144024C019467868194B98470346002BF6D1FB68A7
S2144024D0DAB23B681A707B681A4A93420DD100BF45
S2144024E007F10C0319467868104B98470346002BB3
S2144024F0F6D1FB68DAB23B681A707B68124A9342A0
S2144025000DD100BF07F10C0319467868074B984772
S2144025100346002BF6D1FB68DAB23B681A7000BF60
S2144025201037BD4680BD00BF00C200402F99400016
S21440253000020240004202400082014000C20140C8
S21440254000820040000204400042034080B584B050
S21440255000AFF860B9607A6009E0B968F868084B7F
S21440256098477B68013B7B60BB680133BB607B68F8
S214402570002BF2D1002318461037BD4680BD00BF61
S214402580F123400080B483B000AF78607B68072BAF
S21440259025D801A252F823F0B9254000BF254000B7
S2144025A0C5254000CB254000CF254000D325400020
S2144025B0D7254000DB2540004FF4FA4310E04FF4A7
S2144025C000430DE04FF400430AE0084B08E0084B98
S2144025D006E0084B04E0002302E0002300E000236E
S2144025E018460C37BD465DF8047B704700127A00EB
S2144025F00024F40000366E0180B500AF0120044B85
S2144026009847024640F6723303FB02F3184680BDF5
S2144026108525400080B500AF024B984703461846D4
S21440262080BD00BFF925400080B483B000AF78601D
S2144026307B6880221A6000BF0C37BD465DF8047B7D
S214402640704780B483B000AF78607B684FF080728C
S2144026501A6000BF0C37BD465DF8047B704780B4F7
S21440266083B000AF78607B685B6843F001027B68AC
S2144026705A6000BF0C37BD465DF8047B704780B497
S21440268083B000AF78607B685B6823F002027B68AB
S2144026905A6000BF0C37BD465DF8047B704780B477
S2144026A083B000AF78607B685B6823F004027B6889
S2144026B05A6000BF0C37BD465DF8047B704780B457
S2144026C083B000AF78607B685B6803F00403002B40
S2144026D001D0012300E0002318460C37BD465DF8C4
S2144026E0047B704780B483B000AF78607B685B68DB
S2144026F043F010027B685A6000BF0C37BD465DF859
S214402700047B704780B483B000AF78607B685B68BA
S21440271023F080027B685A6000BF0C37BD465DF8E8
S214402720047B704780B483B000AF78600B467B80F4
S2144027307A887B68DA6000BF0C37BD465DF8047B5C
S214402740704780B483B000AF78607B689B689BB26C
S21440275018460C37BD465DF8047B704780B483B09E
S21440276000AF78607B681B6903F40073002B01D0D0
S214402770012300E0002318460C37BD465DF8047B75
S214402780704780B483B000AF78607B681B6903F005
S2144027900203002B01D0012300E0002318460C372B
S2144027A0BD465DF8047B704780B483B000AF786068
S2144027B07B681A6940F20123134040F2012293429B
S2144027C001D1012300E0002318460C37BD465DF8D2
S2144027D0047B704780B582B000AF78600B46FB70D4
S2144027E0FB789BB219467868024B984700BF08377B
S2144027F0BD4680BD2527400080B582B000AF7860DA
S21440280039607868044B98470346DAB23B681A70DA
S21440281000BF0837BD4680BD4327400080B582B024
S21440282000AF78601248134B984702211048124B6D
S21440283098477868114B98477868114B984778685E
S214402840104B98477868104B9847002178680F4B94
S214402850984778680E4B984778680E4B9847002103
S21440286078680D4B984700BF0837BD4680BD00BF0F
S21440287000800040AD5F40001561400029264000C2
S2144028805F264000E526400005274000756C400066
S2144028907F2640009F264000A96C400090B587B038
S2144028A000AFF860B9603B601346FB71204B984719
S2144028B00346194638681F4B98470346FB82BB6859
S2144028C0196800230022F8681B4CA047BB681B68A9
S2144028D008221946F868194B9847BB681B68FA8A5D
S2144028E0D2B21946F868164B9847BB681B68082250
S2144028F01946F868134B9847BB681968FB795B081C
S214402900DBB21A46F868104B9847BB681968FB79E3
S21440291003F00103002B0CBF01230023DBB21A4651
S214402920F8680A4B984700BF1C37BD4690BD00BFAD
S21440293015264000696E4000036F40001F6E400041
S214402940A56E4000796D4000D96C4000296D40006E
S21440295080B582B000AF786039607868104B984791
S2144029600346002B0AD03B681B680F2B14D83B68E5
S2144029701B68194678680B4B98470DE03B681B6808
S214402980032B09D83B681B68012202FA03F3DB439A
S21440299019467868034B984700BF0837BD4680BD48
S2144029A0BF264000756C400080B582B000AF7860AE
S2144029B0396000BF7868084B98470346002BF9D02B
S2144029C00F217868054B98477868054B984700BFB5
S2144029D00837BD4680BD00BF5D274000756C40008F
S2144029E04326400080B588B000AFF860B9607A6092
S2144029F043F69823FB610023BB6121E043F698230E
S214402A00FB6107E0FB695A1EFA61002B02D16FF0AA
S214402A10020319E0F8680E4B98470346002BF1D0A6
S214402A20BA68BB6913441B78FB75FB7D1946F8688A
S214402A30084B9847BB690133BB617B68013B7B60B1
S214402A407B68002BDAD1002318462037BD4680BD70
S214402A5083274000D527400080B588B000AFF86097
S214402A60B9607A6043F69823FB610023BB6138E087
S214402A7043F69823FB6107E0FB695A1EFA61002B78
S214402A8002D16FF0020330E0F8681A4B98470346CD
S214402A90002BF1D0FF21F868174B984743F6982350
S214402AA0FB6107E0FB695A1EFA61002B02D16FF00A
S214402AB002031AE0F868114B98470346002BF1D002
S214402AC007F117031946F8680D4B9847BA68BB6973
S214402AD01344FA7D1A70BB690133BB617B68013BC6
S214402AE07B607B68002BC3D1002318462037BD4649
S214402AF080BD00BF83274000D5274000A92740005F
S214402B00F927400080B48BB000AF78600B46FB706E
S214402B107B687B62FB7887F823307B6AFB61FB69C6
S214402B20BB61BB695B097B617B6903F5001303F2FC
S214402B3007735B023B6197F82330002B09D07B6A12
S214402B40FB60FB6803F01F0301229A403B691A634F
S214402B5008E07B6ABB60BB6803F01F0301229A4013
S214402B603B695A6300BF2C37BD465DF8047B70470F
S214402B7080B500AF01210620014B984700BF80BDBD
S214402B80052B400080B500AF01210620014B984739
S214402B9000BF80BD052B400080B500AF0021062059
S214402BA0014B984700BF80BD052B400080B483B0E2
S214402BB000AF0346FB7100BF0C37BD465DF8047B93
S214402BC0704780B483B000AF0346FB7100BF0C373C
S214402BD0BD465DF8047B704780B400AF00BFBD467D
S214402BE05DF8047B704780B400AF00BFBD465DF81B
S214402BF0047B704780B400AF00BFBD465DF8047BE1
S214402C00704780B400AF00BFBD465DF8047B704798
S214402C1080B582B000AF0346FB80FB88124AA2FB19
S214402C20031292094FF47A7101FB02F29B1A9BB28F
S214402C30002B03D1002106200C4B9847FB880A4AFC
S214402C40A2FB031292094FF47A7101FB02F29B1A1F
S214402C509BB2B3F5FA7F03D101210620034B984778
S214402C6000BF0837BD4680BDD34D6210052B4000DF
S214402C7080B400AF054B1B78002B01D0022300E048
S214402C8000231846BD465DF8047B7047909C0120A3
S214402C9080B483B000AF7860074B1B78002B01D020
S214402CA0022303E07B68C7221A60002318460C37CD
S214402CB0BD465DF8047B7047909C012080B400AF11
S214402CC000231846BD465DF8047B704780B400AFCD
S214402CD001231846BD465DF8047B704780B483B038
S214402CE000AF0346FB71054AFB7913700123184673
S214402CF00C37BD465DF8047B704700BF909C0120B2
S214402D0090B585B000AF78600B467B8013467B70ED
S214402D107B68C82B04D87A887B681344C82B25D98F
S214402D20012327E07B887F2B02D87B88DBB200E03C
S214402D308023FB737B685A1C7A605B020F4A1344FD
S214402D40BB60FB7B5B021A4678780023B9680C4C64
S214402D50A047034683F00103DBB2002B01D00123DA
S214402D6008E0FB7B9BB27A88D31A7B807B88002B5B
S214402D70D8D1002318461437BD4690BD900C00208D
S214402D80954C400080B582B000AF78600B467B80A3
S214402D907B88012219467868034B984703461846B5
S214402DA00837BD4680BD00BF012D400080B582B0CB
S214402DB000AF78600B467B807B8800221946786897
S214402DC0034B9847034618460837BD4680BD00BFAC
S214402DD0012D400080B582B000AF786039607B68D6
S214402DE00133C82B01D901230FE07B68C72B28BFCE
S214402DF0C7237B607B685B02064A13444FF400722D
S214402E0019463868044B9847002318460837BD468D
S214402E1080BD00BF900C00202DE1400080B582B000
S214402E2000AF786039607B680133C82B01D9012335
S214402E300AE07B685B02064A13444FF40072396826
S214402E401846044B9847002318460837BD4680BDB1
S214402E50900C00202DE1400080B582B000AF786035
S214402E607B68072B31D801A252F823F0C92E4000C8
S214402E708D2E4000952E40009D2E4000A52E4000F1
S214402E80AD2E4000B52E4000BF2E40000020114B16
S214402E9098471AE001200F4B984716E000200E4B4B
S214402EA0984712E010200C4B98470EE020200A4B23
S214402EB098470AE03E210020084B984705E03E210F
S214402EC00120064B984700E000BF00BF0837BD46CC
S214402ED080BD00BF45664000B166400021674000A7
S214402EE080B582B000AF78607B68072B26D801A2F9
S214402EF052F823F0152F4000192F4000192F40009C
S214402F002B2F40002B2F40002B2F40002B2F400014
S214402F102B2F4000012312E00B4B98470346002B13
S214402F2014BF01230023DBB209E0084B9847034651
S214402F30002B14BF01230023DBB200E00023184619
S214402F400837BD4680BD00BF7D664000996740009B
S214402F5080B483B000AF78607B68072B25D801A289
S214402F6052F823F0852F40008B2F4000912F4000D1
S214402F70972F40009B2F40009F2F4000A32F4000DC
S214402F80A72F40004FF4FA4310E04FF400430DE003
S214402F904FF400430AE0084B08E0084B06E0084BB5
S214402FA004E0002302E0002300E0002318460C372C
S214402FB0BD465DF8047B704700127A000024F4009A
S214402FC000366E0180B582B000AF0346FB7100BF8D
S214402FD0FB791846054B9847034683F00103DBB25E
S214402FE0002BF5D100BF0837BD4680BDE12E40001E
S214402FF080B586B000AFF8607A603B600B46FB72E7
S214403000FB7A18460D4B984702467B68B2FBF3F3B3
S2144030107B617B693A6802FB03F37B613B68013B5B
S2144030201A04074B13407A68D2B2134343F47C52D7
S214403030FB681A6000BF1837BD4680BD512F400060
S2144030400000FF1F80B582B000AF786039603B68F3
S214403050002B06D1084B9847084A7B681B6893624A
S21440306005E0074B9847054A7B681B68D36200BF5C
S2144030700837BD4680BD00BFB567400000040E401F
S214403080E967400080B582B000AF78607B68002B6F
S21440309003D1084B9847034607E07B68012B03D1D2
S2144030A0054B9847034600E0002318460837BD46C0
S2144030B080BD00BFCD6740000168400080B582B04B
S2144030C000AF0346FB71FB790033012B08D8FB7930
S2144030D01846064B9847FB791846054B984700E03C
S2144030E000BF00BF0837BD4680BD00BF592E400018
S2144030F0C52F400080B582B000AF786000BF7868CA
S214403100044B98470346002BF9D00023184608374F
S214403110BD4680BD8530400080B500AF0120044BE1
S2144031209847024640F6723303FB02F3184680BDCA
S214403130512F400080B500AF024B984703461846D3
S21440314080BD00BF1931400090B583B000AF01206C
S2144031500C4B9847384640F2B953012201210A4C9D
S214403160A0473B4601211846084B98470120084B8C
S21440317098470020074B9847074B984700BF0C37A7
S214403180BD4690BDBD304000F12F40004530400068
S214403190F53040002D6A4000556A400090B5A7B013
S2144031A002AF2148214B98470120214B984707F111
S2144031B0080040F67233012201211E4CA04707F159
S2144031C00803002118461C4B984700201B4B984785
S2144031D000201B4B98471B4B98471B4B9847034672
S2144031E01846124B9847194B1B68194A934217D8F2
S2144031F0164B1B68174A934212D907F10C0220233C
S214403200009313460F220E211348144CA047FB6C24
S2144032109BB2C7F88C30D7F88C101148114B9847A2
S21440322000BF9437BD4690BD000E2707099C40005E
S214403230BD304000F12F400045304000F5304000A2
S214403240C1654000E59A40003531400060020020EC
S214403250C0EF0B083F2C4206000A0E400B00002031
S21440326010140E40616F400080B400AF0223184631
S214403270BD465DF8047B704780B584B000AF03461A
S214403280FB71FB79012B0AD8FA79084913469B0053
S2144032901344DB000B441B689847034600E00123B9
S2144032A0FB73FB7B18461037BD4680BD080E4100B9
S2144032B080B584B000AF03463960FB71FB79012BC3
S2144032C00CD8FA79094913469B001344DB000B449B
S2144032D004331B6838689847034600E00123FB73B5
S2144032E0FB7B18461037BD4680BD00BF080E410028
S2144032F080B485B000AF0346FB71FB79012B94BFC9
S21440330001230023DBB2FB73FB7B18461437BD4614
S2144033105DF8047B7047000080B584B000AF03467C
S2144033200A46FB711346BB71FB79012B2AD8FA7902
S214403330184913469B001344DB000B4408331B68B4
S214403340002B12D0FA79134913469B001344DB0036
S2144033500B4408331B68BA79104698470346002B3F
S21440336014BF01230023DBB20DE0BB79002B14BF52
S21440337001230023DBB283F00103DBB203F0010339
S214403380DBB200E00023FB73FB7B18461037BD46DC
S21440339080BD00BF080E410080B584B000AF034634
S2144033A0FB71FB79012B0CD8FA790A4913469B002E
S2144033B01344DB000B440C331B6898470346002B32
S2144033C001D0012300E00023FB73FB7B1846103737
S2144033D0BD4680BD080E410080B584B000AF0346B0
S2144033E0FB71FB79012B0CD8FA790A4913469B00EE
S2144033F01344DB000B4410331B6898470346002BEE
S21440340001D0012300E00023FB73FB7B18461037F6
S214403410BD4680BD080E410080B483B000AF034671
S214403420FB71FB79012B09D8FA79084913469B00B2
S2144034301344DB000B4424331B6800E0002318468B
S2144034400C37BD465DF8047B704700BF080E410050
S21440345080B584B000AF03463960FB711346BB802D
S2144034600E4B9847FB79012B0ED8FA790C49134638
S2144034709B001344DB000B4414331B68BA88114688
S21440348038689847034600E00123FB73054B98478E
S214403490FB7B18461037BD4680BD00BFD92B400089
S2144034A0080E4100E72B400080B584B000AF0346CD
S2144034B03960FB711346BB800E4B9847FB79012B56
S2144034C00ED8FA790C4913469B001344DB000B4494
S2144034D018331B68BA88114638689847034600E098
S2144034E00123FB73054B9847FB7B18461037BD46B8
S2144034F080BD00BFF52B4000080E4100032C400065
S21440350080B586B000AF0346B9607A60FB730E4B59
S2144035109847FB7B012B0DD8FA7B0C4913469B0042
S2144035201344DB000B441C331B687968B868984723
S214403530034600E00123FB75054B9847FB7D184684
S2144035401837BD4680BD00BFD92B4000080E41004D
S214403550E72B400080B586B000AF0346B9607A607E
S214403560FB730E4B9847FB7B012B0DD8FA7B0C491F
S21440357013469B001344DB000B4420331B687968DA
S214403580B8689847034600E00123FB75054B98470B
S214403590FB7D18461837BD4680BD00BFF52B400062
S2144035A0080E4100032C400080B483B000AFEFF318
S2144035B010837B607B68002B0CBF01230023DBB2AB
S2144035C03B6072B6BFF35F8F044B00221A703B68B5
S2144035D018460C37BD465DF8047B70475E020020F7
S2144035E080B483B000AF78607B68002B14BF0123A3
S2144035F00023DBB218460C37BD465DF8047B7047A7
S21440360080B582B000AF78607868074B984703462D
S214403610002B05D0054B01221A70BFF35F8F62B6B0
S21440362000BF0837BD4680BDE13540005E02002041
S21440363080B582B000AF0023BB71494B00221A70A0
S214403640BB79484A002122F81310BA7946491346F6
S2144036509B0013445B000B44A1221A70BA7942497E
S21440366013469B0013445B000B44013320221A7020
S214403670BA793D4913469B0013445B000B44023322
S21440368000221A80BB79002B02D10023FB7102E096
S2144036900023FB7100BFBA79FB7998B232491346D2
S2144036A09B0013445B000B44043302461A80BA79ED
S2144036B02D4913469B0013445B000B4406330222FD
S2144036C01A80BA79284913469B0013445B000B4482
S2144036D0083300221A80BA7924491346DB009B1A25
S2144036E00B4400221A70002262F03D025A700022FB
S2144036F042F001029A700022DA70BA791B491346EA
S214403700DB009B1A0B44043300221A70BA7917491F
S2144037101346DB009B1A0B44053300221A70BA7915
S21440372012491346DB009B1A0B44063308221A70D4
S214403730BB7918460E4B9847034683F00103DBB22D
S214403740002B01D0002307E0054B1B78DBB201338A
S214403750DAB2034B1A70012318460837BD4680BDBF
S214403760AA9C01209C9C0120A09C0120949C0120A6
S21440377019DD400080B582B000AF0023FB712D4BB1
S21440378000221A70FB792C4A0021D154FB792B4A2F
S2144037900021D154FB792A4A0021D154FB79294A89
S2144037A0002122F82310FB79264A9B00134400226E
S2144037B05A80FB79244A002122F81310FB791846D8
S2144037C0224B9847FB79224A0021D154FB79214A63
S2144037D00021D154FB79204A002122F82310FB799E
S2144037E01D4A9B00134400225A80FB791B4A002145
S2144037F022F81310FB791846194B9847034683F076
S2144038000103DBB2002B01D000230FE0094B1B78ED
S214403810DBB20133DAB2074B1A70064B1B78DBB2C9
S214403820012B02D10F4B01221A700123184608378C
S214403830BD4680BDAB9C0120CCA10120D0A101207B
S214403840C4A10120C0A10120C8A101205D3C4000C8
S2144038503C9F0120349F0120309F0120389F01204B
S2144038602D3A4000AC9C012080B400AF054B1B783D
S214403870DBB2013BDAB2034B1A7000BFBD465DF8BF
S214403880047B7047AA9C012080B582B000AF0A4BEB
S2144038901B78DBB2013BDAB2074B1A70064B1B783B
S2144038A0FB71FB791846054B9847054B00221A706A
S2144038B000BF0837BD4680BDAB9C01203DDD4000C3
S2144038C0AC9C012080B582B000AF314B9847034690
S2144038D0FB71304B1B785BB2002B1CDA2D4B1B78F0
S2144038E003F06003202B16D12A4B5B78212B12D194
S2144038F0284BDB88072B01D0002345E0FA79134696
S214403900DB009B1A244A1344224A9360214B072229
S2144039109A81012338E01F4B1B785BB2002B32DBC9
S2144039201C4B1B7803F06003202B2CD1194B5B7883
S214403930202B02D0222B16D025E0164BDB88072BF7
S21440394001D0002320E0134B144A1A61FA7913463B
S214403950DB009B1A104A13440E4A93600D4B072215
S2144039609A81012310E00B4B5B8803F00103002B88
S21440397014BF01230023DAB2FB7911461846084BE0
S2144039809847012300E0002318460837BD4680BD0F
S214403990E1394000A8AB0120949C0120113A400038
S2144039A05DDD400080B400AF00231846BD465DF89C
S2144039B0047B704780B400AF00231846BD465DF8D0
S2144039C0047B704780B500AF034B1B781846034B0B
S2144039D0984700BF80BD00BFD1A101205D3C40009C
S2144039E080B483B000AF094B9B88DBB2002B02D17A
S2144039F00023FB7102E00023FB7100BFFB791846F1
S214403A000C37BD465DF8047B704700BFA8AB01206D
S214403A1080B582B000AF044B98470346FB7100BFA9
S214403A200837BD4680BD00BFE139400090B589B03B
S214403A3002AF0346FB710023FB712F4B984738615A
S214403A40FB792E4AD35CFB73FB792D4AD35CDBB201
S214403A50002B0ED1FB792B4A32F813309AB2F97903
S214403A60FB7B294849000B4430F813309BB29A42FE
S214403A7004D23869254B9847002339E0FB79214A20
S214403A80002122F81310FB79FA7B002A0CBF012292
S214403A900022D2B21146194AD154FB79184A012164
S214403AA0D1543869194B9847FB791846184B9847B4
S214403AB0FB79002B02D10523FB7502E00523FB753D
S214403AC000BFF979FB7B1A4692001A4493011A46C6
S214403AD00B469B000B44DB0113440E4A1A44F87D08
S214403AE00D4B00934FF4A07301210C4CA0470346A6
S214403AF018461C37BD4690BDA9354000349F01206E
S214403B003C9F0120389F0120309F01200136400015
S214403B10A53E4000B09C0120213B4000F57B400084
S214403B2090B587B002AF03463960FB711346BB7150
S214403B30BB79052B02D10023FB7302E00023FB7305
S214403B4000BFFB79002B36D1FB7B1D4AD35CDBB232
S214403B50002B0CBF01230023DBB2BB733B68002B5A
S214403B6016D1F97BBB7B1A4692001A4493011A463B
S214403B700B469B000B44DB011344124A1A44B879A7
S214403B80114B00934FF4A0730121104CA04713E053
S214403B90FA7BBB7B396888B20D4952001344024613
S214403BA021F81320FB7B0B4A0021D154FB7B18469F
S214403BB0094B984700E000BF1437BD4690BD00BF94
S214403BC0349F0120B09C0120213B4000F57B400003
S214403BD0309F01203C9F01202D3A400080B584B0A4
S214403BE000AF03463960FB711346BB71BB79842B2B
S214403BF002D10023FB7302E00023FB7300BFFB7976
S214403C00002B1DD1FB7BFA7B0F498A5CD2B2002A7F
S214403C100CBF01220022D2B211460C4A5B000B4474
S214403C20002122F81310FB7B094A0021D154FB7B6C
S214403C30084A0021D154FB7B1846074B984700E0C2
S214403C4000BF1037BD4680BDC4A10120C0A10120E1
S214403C50D0A10120CCA101205D3C400090B589B0A8
S214403C6002AF0346FB710023FB71FB79664AD35CC7
S214403C70DBB2002B40F0C280644B98470346002BD3
S214403C8009D0FB79624A32F81340624B98470346A4
S214403C909C420AD1B5E0FB795D4A32F813405E4B50
S214403CA0984703469C4200F0AB805C4B984738618F
S214403CB0FB795B4AD35CFB75FA79FB7D5949520028
S214403CC0134431F81330002B1FD1574B1B88013358
S214403CD09AB2554B1A804D4B9847034683F00103E2
S214403CE0DBB2002B03D0504B1B88632B09D9474BC4
S214403CF098470346002B08D04B4B1B88B3F5487FAC
S214403D0003D23869494B98477BE0474B00221A80DC
S214403D10FB79474AD35CDBB283F00103DBB2002B6E
S214403D200AD0FB79FA7D002A0CBF01220022D2B2CB
S214403D3011463B4AD15406E0FB7D002B0CBF0123C5
S214403D400023DBB2FB75FB792F4A0121D154386939
S214403D50364B9847FA79FB7D32495200134431F886
S214403D601330B3F5A07F14BF01230023FB73FB7B06
S214403D70002B16D0254B98470346002B08D0FC79DD
S214403D80244B984703461A46214B23F814200DE04F
S214403D90FC79214B984703461A461D4B23F81420BE
S214403DA004E0FB791A4A002122F81310FB79002B15
S214403DB002D18423BB7502E08423BB7500BFF9792A
S214403DC0FB7D1A4692001A4493011A460B469B0006
S214403DD00B44DB011344174A9C18FA79FB7D1149C2
S214403DE05200134431F813301A46F97BB87D124B13
S214403DF0009313462246114CA04702E000BF00E065
S214403E0000BF1C37BD4690BDCCA101207174400058
S214403E10C8A101203575400015754000A935400001
S214403E20C4A10120C0A10120D2A10120013640003A
S214403E30D0A10120409F0120DD3B4000F57B4000A3
S214403E4080B586B000AF0346FB710023FB71104B74
S214403E5098477861FB790F4A32F813307B82FB79BA
S214403E60FA790D498A5CD2B211460C4A5B000B4483
S214403E7032F813309BB21A467B8AD31AFB607869B5
S214403E80074B9847FB6818461837BD4680BD00BFAD
S214403E90A9354000389F0120349F0120309F0120E3
S214403EA00136400080B582B000AF0346FB71FB7917
S214403EB01846064B98470346002B14BF01230023A1
S214403EC0DBB218460837BD4680BD00BF413E4000C5
S214403ED080B582B000AF1F4B00221A701E4B0022E6
S214403EE01A701E4B01221A701D4B01221A701D4B70
S214403EF0984703461A461C4B1A701B4B1B78002BE0
S214403F0001D1002322E0184B1B78013BDAB2164B56
S214403F101A70164B9847034683F00103DBB2002B1A
S214403F2001D0002312E00023FB7107E0FB7900215B
S214403F3018460F4B9847FB790133FB710A4B1B78A9
S214403F40FA799A42F2D90B4B98470123184608371C
S214403F50BD4680BD0BA201200AA20120010200201E
S214403F600202002069324000F4A10120E5DC400056
S214403F7019334000E940400080B500AF064B0022B0
S214403F801A70064B01221A70054B01221A70054B17
S214403F90984700BF80BD00BF0BA201200102002051
S214403FA00202002001DD400080B500AF284B1B78A0
S214403FB05BB2002B1DDA264B1B7803F06003202BE8
S214403FC017D1234B5B78FE2B13D1214BDB88012B7B
S214403FD001D0002339E01E4B5B88002B01D0002324
S214403FE033E01B4B1B4A9A60194B01229A810123EE
S214403FF02BE0174B1B785BB2002B25DB144B1B7852
S21440400003F06003202B1FD1114B5B78FF2B1BD195
S2144040100F4BDB88002B01D0002316E00C4B5B884F
S214404020002B01D0002310E00B4B00221A700B4BE4
S21440403000221A7002200A4B98478120084B984766
S214404040084B9847012300E00023184680BD00BF78
S214404050A8AB0120F4A101200AA201200BA2012056
S2144040604D7D4000E940400080B400AF0023184634
S214404070BD465DF8047B704780B500AF084B1B78A3
S21440408083F00103DBB2002B07D10220054B984793
S21440409005490220054B984700E000BF80BD00BFA1
S2144040A00AA201206978400079404000C17F400064
S2144040B080B500AF084B1B7883F00103DBB2002BC2
S2144040C007D18120054B984705498120054B9847E5
S2144040D000E000BF80BD00BF0AA201206978400012
S2144040E0B1404000C17F400090B583B002AF0B4B5B
S2144040F000931F230A4A012102200A4CA047034688
S21440410083F00103DBB2002B03D007490220074BA4
S214404110984700BF0437BD4690BD00BF31414000C0
S214404120D4A10120F57B4000E9404000C17F40001B
S21440413080B582B000AF03463960FB711346BB7151
S214404140FB79002B40F011813B681F2B04D1894B33
S2144041501B68894A934207D0884B01221A70884BC5
S2144041609847884B984701E1824B5B7B03F00F03EF
S214404170DAB2804B5A737F4B5A7B834B1B789A42FA
S21440418004D9824B9847824B9847EFE0794B9B681F
S214404190804A9360774BDB7B5A2B00F2E08001A28B
S2144041A052F823F02D4340005F4340005F434000F9
S2144041B0114340005F4340005F4340005F43400080
S2144041C05F4340005F4340005F4340005F43400022
S2144041D05F4340005F4340005F4340005F43400012
S2144041E05F4340005F4340005F434000174340004A
S2144041F05F4340005F4340005F4340005F434000F2
S2144042005F4340005F4340005F4340001D43400023
S214404210394340005F4340005F4340003F43400017
S2144042205F4340005F4340005F4340005F434000C1
S2144042305F4340005F434000334340005F434000DD
S2144042405F4340004F4340005F43400057434000B9
S2144042505F4340005F4340005F4340005F43400091
S214404260454340005F4340005F4340005F4340009B
S2144042705F4340005F4340005F4340005F43400071
S2144042805F4340005F4340005F4340005F43400061
S2144042905F4340005F4340005F4340005F43400051
S2144042A05F4340005F4340005F4340005F43400041
S2144042B05F4340005F4340005F4340005F43400031
S2144042C05F4340005F4340005F4340005F43400021
S2144042D05F4340005F4340005F4340005F43400011
S2144042E05F4340005F4340005F4340005F43400001
S2144042F05F4340005F4340005F4340005F434000F1
S2144043005F4340005F4340005F434000254340001A
S214404310214B98472AE0214B984727E00020204B26
S214404320984723E001201E4B98471FE01D4B9847B7
S2144043301CE01D4B984719E01C4B984716E01C4B59
S214404340984713E01B4B9847114B98470EE00120C7
S214404350194B98470AE00020174B984706E0174B42
S21440436098470B4B984700BF00E000BF0837BD4654
S21440437080BD00BFD4A10120555342430AA201206C
S21440438079404000B1404000F4A101206146400021
S21440439099444000F401002091464000E146400028
S2144043A05148400029484000154A4000A149400075
S2144043B069494000E5454000AD4A40007946400026
S2144043C080B582B000AF78600B46FB700B4B1A7B13
S2144043D0FB785340DBB25BB2002B04DB084B9A6899
S2144043E07B689A4205D2074B9847074B984700236D
S2144043F000E0012318460837BD4680BDD4A1012001
S214404400F4010020614640009944400090B585B0D4
S21440441002AF78600B46FB70FA780B4B009313465E
S2144044207A6801218120094CA047034683F00103A6
S214404430DBB2002B03D0064B9847064B984700BF8D
S2144044400C37BD4690BD00BF59444000F57B400048
S214404450314640009944400080B582B000AF0346E4
S2144044603960FB711346BB71FB79002B0AD1074BB1
S2144044709847074B9A683B68D31A054A9360054BA2
S214404480984700E000BF0837BD4680BDE545400080
S214404490F40100209944400080B500AF0D4B9B6866
S2144044A0002B0BD00C4B1B7B5BB2002B03DA81201E
S2144044B00A4B984702E00220084B9847064B5B6839
S2144044C0044A5360034B9B68024A9360044B9847E8
S2144044D000BF80BDF4010020D4A1012069784000CF
S2144044E0E544400090B583B002AF0B4B00930D23DC
S2144044F00A4A002181200A4CA047034683F0010364
S214404500DBB2002B03D007498120074B984700BFFA
S2144045100437BD4690BD00BF2D454000F401002045
S214404520F57B4000E5444000C17F400080B582B046
S21440453000AF03463960FB711346BB71024B984788
S21440454000BF0837BD4680BDE940400080B500AF9B
S214404550122200210548064B9847044BF0221A7059
S214404560024B0A22DA7100BF80BD00BFF8A10120CD
S21440457061E2400080B582B000AF03463A60FB710E
S2144045800B46BB80144B9847144B01221A73144AAF
S214404590FB7993703B681B0EDAB2114BDA703B68BE
S2144045A01B0CDAB20E4B1A713B681B0ADAB20C4B84
S2144045B05A713B68DAB20A4B9A71BB881B0A9BB2A7
S2144045C0DAB2074B1A73BB88DAB2054B5A7300BF90
S2144045D00837BD4680BD00BF4D454000F401002071
S2144045E0F8A1012080B500AF034B9847034B00224B
S2144045F01A7300BF80BD00BF4D454000F401002047
S21440460080B500AF00224FF468510220014B984716
S21440461000BF80BD7545400080B500AF00224FF416
S21440462020510620014B984700BF80BD754540008D
S21440463080B500AF002200210420024B984700BFFF
S21440464080BD00BF7545400080B500AF00224FF4E6
S2144046501C510720014B984700BF80BD7545400060
S21440466080B500AF00224FF410510520014B98470B
S21440467000BF80BD7545400080B500AF00224FF4B6
S21440468000510520014B984700BF80BD754540004E
S21440469080B582B000AF0E4BDB7CFB71FB79122BF2
S2144046A001D91223FB71FB7980211846094B9847A4
S2144046B0034683F00103DBB2002B05D1FB79194694
S2144046C00548064B984700E000BF0837BD4680BD0A
S2144046D0D4A10120C1434000F8A101200D44400070
S2144046E090B583B000AF354BDB7CFB71FB79242B58
S2144046F001D92423FB71FB7980211846304B98471B
S214404700034683F00103DBB2002B52D12B4B1B7CBC
S21440471003F00303002B03D1284B5B7C002B04D013
S214404720284B9847284B984744E0244B5B7B1846D9
S214404730264B98470346002B01D0802200E00022FB
S214404740234B5A701D4B5B7B1846224B98470346BB
S2144047505A1C1F4B03F110041346186859689A6890
S214404760DB680FC40023BB710EE0BB79184A1344C4
S2144047701B7C002B14D0BB79154A13441B7C222B80
S2144047800ED0BB790133BB71BB79102BEDD107E05E
S214404790BB790F4A134420221A74BB790133BB718C
S2144047A0BB79102BF4D1FB79194609480A4B984738
S2144047B000E000BF0C37BD4690BD00BFD4A101202D
S2144047C0C14340006146400099444000D933400010
S2144047D004020020193440000D44400080B500AF6C
S2144047E00C4B5B7B18460C4B98470346022B08D075
S2144047F0032B03D0002B07D1012309E0074B984732
S21440480005E0074B984702E0064B984700BF002359
S214404810184680BDD4A10120793240001946400098
S214404820014640003146400080B500AF054B9847F2
S2144048300346002B01D0044B9847044B984700BFD3
S21440484080BD00BFDD474000E5454000994440003C
S21440485080B586B000AF0346FB71142200213A486B
S2144048603A4B9847FB79002B07D0394BDB7DBB751D
S214404870384B3B610823FB7506E0354BDB7CBB754C
S214404880354B3B610423FB75314B5B7C03F03F03A8
S214404890FB73FB7B1C2B02D0FB7B3F2B0BD13B6976
S2144048A01C221A703B690A225A703B690522DA704C
S2144048B0FB7D0C33FB75BA7DFB7D9A4201D9FB7DAF
S2144048C0BB75BB7D80211846244B9847034683F032
S2144048D00103DBB2002B32D11D4B5B7B1846204BCD
S2144048E098470346002B01D0802300E00023BB738B
S2144048F0FB79002B15D0FB7D9BB2023B9BB21B0A7B
S2144049009BB21AB2FB7D9BB2023B9BB21B021BB210
S21440491013431BB29AB20C4B1A800B4ABB7BD37024
S21440492007E0FB7D013BDAB2074B1A70064ABB7BB9
S2144049309370BB7D194604480A4B984700E000BF79
S2144049401837BD4680BD00BF18A2012061E2400076
S214404950D4A1012020A201201CA20120C143400076
S214404960993340000D44400080B582B000AF084BFC
S214404970DB7CFB71FB79002B02D1064B984701E0AC
S214404980054B9847054B984700BF0837BD4680BD46
S214404990D4A10120E54540006146400099444000CE
S2144049A080B582B000AF174BDB7C03F00103002BD1
S2144049B014BF01230023FB71124BDB7C03F0020380
S2144049C0002B14BF01230023BB71BB79002B11D0F1
S2144049D00C4B5A7BFB79002B14BF01230023DBB220
S2144049E083F00103DBB203F00103DBB21946104645
S2144049F0054B9847054B9847054B984700BF0837E7
S214404A00BD4680BDD4A1012019334000E545400095
S214404A109944400080B500AF802108201A4B984743
S214404A20034683F00103DBB2002B2BD1174B5B7B95
S214404A3017491846174B98470346022B09D0032BB5
S214404A4002D0002B0FD009E0134B9847134B9847E2
S214404A5019E0134B9847114B984714E0114B984771
S214404A600E4B98470FE000BF094B4FF400325A6098
S214404A70074B1B681BBA064A1360082104480A4BBA
S214404A80984700E000BF80BDC1434000D4A101204C
S214404A902CA20120B1324000194640009944400003
S214404AA001464000314640000D44400080B584B089
S214404AB000AF0346FB71FB7983F00103DBB2002BAA
S214404AC00CD0224B5B7B1846214B98470346002B65
S214404AD004D0204B9847204B984733E01F4B1B4A47
S214404AE0527C1A701E4B194A927C1A701D4B174AFC
S214404AF0D27C1A701C4B154A127D1A701B4B134AF7
S214404B00927D1A701A4B114AD27D1A70184B1B8828
S214404B105B02FB60FB79002B01D0802300E0002382
S214404B201946F868134B9847034683F00103DBB2F7
S214404B30002B06D1104AFB791370104B01221A70D5
S214404B4000E000BF1037BD4680BD00BFD4A10120A5
S214404B5099334000494640009944400013A2012042
S214404B6012A2012011A2012010A2012015A20120AC
S214404B7014A20120C14340000CA201200BA2012038
S214404B8080B582B000AF274B1B7883F00103DBB2C1
S214404B90002B01D0002340E0224B00221A70224B0B
S214404BA000221A70214B1B78002B0BD0204B587BD1
S214404BB0204B1968204B1B881A46204B98470346C3
S214404BC0FB710AE01A4B587B1A4B19681A4B1B8824
S214404BD01A461B4B98470346FB71134B1B78DBB2B8
S214404BE0002B04D0104B00221A70012315E0FB79ED
S214404BF0022B09D0032B04D0002B08D1114B984729
S214404C0008E0114B984705E0104B984702E0104BE0
S214404C10984700BF0F4B9847012318460837BD46B4
S214404C2080BD00BF0BA20120020200200CA2012082
S214404C30D4A1012010A2012014A20120513440002A
S214404C40A9344000E5454000194640000146400072
S214404C50314640009944400080B483B000AF0346DC
S214404C603960FB711346BB71FB79002B14BF0123DF
S214404C700023DAB2054B1A70054B01221A7000BFAA
S214404C800C37BD465DF8047B704700BF9AAB0120E9
S214404C900102002090B587B002AFB9607A603B60F1
S214404CA00346FB732E4B1B78DBB283F00103DBB26B
S214404CB0002B01D000234EE0294B00221A70FB7BCC
S214404CC0002B01D0812000E002203B68002B01D061
S214404CD03B6800E0234B00937B68BA680021224C77
S214404CE0A047034683F00103DBB2002B04D01C4BE5
S214404CF001221A7000232EE03B68002B24D100BF0F
S214404D00174B1B78DBB283F00103DBB2002BF7D1E5
S214404D10164B1B78DBB2002B01D000231BE0144B54
S214404D209A687B68D31A124A9360104B1B78DBB2A2
S214404D30002B14BF01230023DBB283F00103DBB258
S214404D4003F00103DBB206E0094B9A687B68D31A8E
S214404D50074A9360012318461437BD4690BD00BFEE
S214404D6001020020594C4000F57B40009AAB0120E0
S214404D70F401002080B400AF024B1846BD465DF8F3
S214404D80047B7047580E410080B400AF064B1B684A
S214404D901B68054A12681268528892B21344184635
S214404DA0BD465DF8047B704740A2012080B584B0C4
S214404DB000AF78600B46FB70124B9847F8607B68F4
S214404DC01B781A467B6813447B6010E07B685B78F0
S214404DD0042B11D07B685B78FA789A4201D17B68C5
S214404DE00CE07B681B781A467B6813447B60FA6845
S214404DF07B689A42EAD800E000BF00231846103786
S214404E00BD4680BD894D400080B584B000AF0346A6
S214404E100A46FB711346BB711E4B1B78002B01D113
S214404E20002332E01C4B1B681B681B79FA799A42B8
S214404E3001D3002329E0184B1B681B68174A1360F0
S214404E40174B9847F8601AE0144B1B685B78042BA6
S214404E500DD1124B1B689B78FA799A4207D10F4BBB
S214404E601B68DB78BA799A4201D101230DE00B4BDF
S214404E701B680A4A126812781344084A1360074BA4
S214404E801B68FA689A42DFD8002318461037BD469A
S214404E9080BD00BF3CA2012040A2012044A20120C8
S214404EA0894D400080B584B000AF0346FB71FB7966
S214404EB0002118461E4B9847034683F00103DBB299
S214404EC0002B01D000232FE01A4B1B685A68FB7951
S214404ED09B0013441B68BB60BB68DB68984703466F
S214404EE01A46FB7911461846114B9847034683F0FD
S214404EF00103DBB2002B01D0002315E00E4B1B68EC
S214404F00FB600521F8680D4B9847F860FB68002B5E
S214404F1005D0FB689B781846094B9847F1E700BFD9
S214404F20BB685B689847012318461037BD4680BD6E
S214404F30094E400040A2012044A20120AD4D400051
S214404F407177400080B584B000AF03460A46FB71D7
S214404F501346BB71BA79FB79114618461A4B9847E7
S214404F60034683F00103DBB2002B01D0002327E089
S214404F70164B1B68FB600521F868154B9847F86090
S214404F80FB68002B11D0FB689878FB68D978FB68E3
S214404F909B889BB21A460F4B9847034683F0010303
S214404FA0DBB2002BE7D000230AE000BF0A4B1B68A9
S214404FB05A68FB799B0013441B681B689847034656
S214404FC018461037BD4680BD094E400044A2012019
S214404FD0AD4D40006D75400040A2012080B500AF49
S214404FE0014B984700BF80BD7173400080B582B0CA
S214404FF000AF0F4B1B78002B10D00023FB7106E050
S214405000FB7918460B4B9847FB790133FB710A4BEB
S2144050101B681B681B79FA799A42F1D3044B00222D
S2144050201A70064B01221A8000BF0837BD4680BD65
S2144050303CA20120A54E400040A2012034A20120FF
S21440504080B582B000AF144B1B78002B1FD00023D6
S214405050FB7115E0114B1B685A68FB799B001344A3
S2144050601B681B69002B08D00C4B1B685A68FB79E1
S2144050709B0013441B681B699847FB790133FB71FF
S214405080064B1B681B681B79FA799A42E2D300BF2D
S2144050900837BD4680BD00BF3CA2012040A201208B
S2144050A080B500AF064BDB88022B01D0002304E01E
S2144050B002210448044B98470123184680BD00BF90
S2144050C0A8AB012034A201204575400080B500AF52
S2144050D00B4BDB88022B01D000230EE0084B9B884D
S2144050E0DBB21846074B984703469AB2064B1A80DF
S2144050F002210548054B98470123184680BD00BF4E
S214405100A8AB0120F577400048A201204575400035
S21440511080B400AF0C4BDB88002B01D000230DE0A1
S214405120094B5B88012B08D1084B1B8823F00203F0
S2144051309AB2064B1A80012300E000231846BD466B
S2144051405DF8047B704700BFA8AB012034A2012065
S21440515080B500AF0A4BDB88002B01D000230CE063
S214405160074B5B88002B07D1054B9B88DBB2184664
S214405170044B9847034600E00023184680BD00BF16
S214405180A8AB0120D579400080B400AF094BDB883E
S214405190002B01D0002307E0064B5B88012B02D092
S2144051A000BF002300E000231846BD465DF8047BA0
S2144051B0704700BFA8AB012080B500AF0D4BDB8821
S2144051C0002B01D0002312E00A4B5B88002B0DD148
S2144051D0084B9B88DBB21846074B9847054B9B8885
S2144051E0DBB21846054B9847034600E000231846B6
S2144051F080BD00BFA8AB01204D7D400069784000CF
S21440520080B500AF054B5B88DBB203F07F03DBB2B3
S2144052101846034B984700BF80BD00BFA8AB01208F
S2144052208174400080B400AF074BDB88002B01D070
S214405230002303E0044B054A1A6101231846BD4685
S2144052405DF8047B704700BFA8AB012001524000C8
S21440525080B584B000AF0023FB712C4B5B88DBB27B
S214405260032B20D801A252F823F000BF7D52400005
S21440527087524000915240009B52400004212448EF
S214405280244B984717E00923FB71234BBB6012E081
S2144052900B23FB71214BBB600DE00C23FB71204BB5
S2144052A09847B86007E01F4B98470346002B01D14C
S2144052B0002327E000BFFB79002B22D00023FB739E
S2144052C00DE0FB7BFA7BB9680A44127891B2164A25
S2144052D05B0013440A465A80FB7B0133FB73FA7B20
S2144052E0FB799A42EDD3FB790133DBB25B00DAB24D
S2144052F00D4B1A700C4B1B789BB219460A48054B4F
S2144053009847012318461037BD4680BDA8AB0120FC
S21440531028020020457540002C020020380200205C
S214405320754D400031DC40004402002080B582B01C
S21440533000AF414B5B88FB713F4B5B881B0A9BB2BF
S214405340DBB2013B0E2B65D801A252F823F000BF1A
S2144053508D534000A3534000015440001554400074
S2144053601554400015544000155440001554400054
S2144053701554400015544000155440001554400044
S2144053801554400015544000DF5340002B4B1A681C
S2144053902A4B1B681B789BB219461046284B9847E9
S2144053A03BE0264B1B685B7CFA799A4201D300238C
S2144053B03EE0224B5A68FB79DB00134418681F4BCB
S2144053C05A68FB79DB0013441B685B889BB219461E
S2144053D01B4B9847184B9B6802225A701DE0174B90
S2144053E09B68002B01D1002322E0144B9A68134B94
S2144053F09B685B889BB219461046114B98470CE059
S214405400104B9847034683F00103DBB2002B03D0D2
S21440541000230DE000230BE000BF074BDA88064B65
S2144054209B899A4203D2044BDA88034B9A81012324
S21440543018460837BD4680BDA8AB0120D4010020E1
S214405440457540005152400080B500AF064BDB88A2
S214405450012B01D0002304E001210448044B984767
S2144054600123184680BD00BFA8AB01203CA2012006
S2144054704575400080B582B000AF274BDB88002BD7
S21440548001D0002343E0254B98470346002B01D12B
S21440549000233CE0204B5B88DBB2214A1268527CFA
S2144054A0934201DD002332E01E4B98471A4B5B883F
S2144054B0DAB21D4B1A701C4B1B78002B01D101230E
S2144054C025E0174B5A68184B1B7803F10053013BF5
S2144054D0DB001344154A13600023FB710FE0FB7991
S2144054E000211846124B9847034683F00103DBB26F
S2144054F0002B01D000230AE0FB790133FB710B4BF4
S2144055001B681B681B79FA799A42E8D30123184630
S2144055100837BD4680BD00BFA8AB0120E5744000FB
S214405520D4010020ED4F40003CA2012040A20120C3
S214405530454F400080B582B000AF1E4BDB88012B44
S21440554001D0002332E01C4B1B78002B01D10023F6
S2144055502CE0184B9B88FB71184B1B681B681B790B
S214405560FA799A4201D3002320E0FB7900211846BD
S214405570134B9847034683F00103DBB2002B01D060
S214405580002313E00D4B1B685A68FB799B001344BD
S2144055901B683B603B68DB68984703461A46094BE6
S2144055A01A7001210748084B9847012318460837C8
S2144055B0BD4680BDA8AB01203CA2012040A20120F0
S2144055C0094E400038A201204575400080B582B0A3
S2144055D000AF144BDB88002B01D000231EE0124B9B
S2144055E01B78002B01D1002318E00E4B9B88FB71E3
S2144055F00C4B5B88BB71FB7918460C4B98470346AF
S21440560083F00103DBB2002B01D0002306E0BA7919
S214405610FB7911461846064B984703461846083706
S214405620BD4680BDA8AB01203CA20120A54E40004F
S214405630454F400080B500AF4D4B1B785BB2002B0A
S2144056403EDA4B4BDB88002B01D100238EE0484BE3
S2144056501B7803F01F03002B14D1454B5B78062BB9
S21440566008D0082B0AD0002B00D00BE0414B9847BF
S21440567003467BE0404B9847034677E03F4B9847CE
S214405680034673E03A4B1B7803F01F03012B08D107
S214405690374B5B780A2B00D003E0394B98470346DC
S2144056A064E0334B1B7803F01F03022B5DD1304B75
S2144056B05B78002B00D058E0324B9847034655E0C5
S2144056C02B4B1B7803F01F03002B2AD1284B5B780B
S2144056D0013B082B24D801A252F823F0095740007A
S2144056E021574000115740002157400001574000C5
S2144056F0215740002157400021574000195740008D
S214405700214B9847034631E0204B984703462DE00F
S2144057101F4B9847034629E01E4B9847034625E013
S21440572000BF134B1B7803F01F03012B08D1104B0F
S2144057305B780B2B00D003E0174B9847034615E0E9
S2144057400B4B1B7803F01F03022B0ED1084B5B78E4
S214405750012B02D0032B04D007E0104B984703469A
S21440576004E00F4B9847034600E00023184680BDF0
S214405770A8AB0120A15040002D53400049544000A2
S21440578035554000CD504000255240001151400054
S2144057908951400075544000CD554000515140005D
S2144057A0B951400080B582B000AF204B1B78002B2B
S2144057B001D1002336E01E4B9B88FB711D4B1B68B6
S2144057C01B681B79FA799A4201D300232AE0FB79B9
S2144057D000211846184B9847034683F00103DBB276
S2144057E0002B01D000231DE0124B1B685A68FB7942
S2144057F09B0013441B683B603B68DB689847034646
S2144058001A46FB79114618460B4B9847034683F0D9
S2144058100103DBB2002B01D0002303E03B689B680A
S2144058209847034618460837BD4680BD3CA201202F
S214405830A8AB012040A20120094E400080B582B0AE
S21440584000AF1E4B1B78002B01D1002332E01C4BCF
S2144058509B88FB710023FB7124E01A4B1B685A6837
S214405860FB799B0013441B683B603B68DB689847AA
S21440587003461A46FB7911461846134B984703468B
S21440588083F00103DBB2002B01D0002312E03B681B
S2144058909B6898470346002B01D001230AE0FB791A
S2144058A00133FB71074B1B681B681B79FA799A42D8
S2144058B0D3D3002318460837BD4680BD3CA20120FE
