S02500004344435F4D5343315F53414D4735355F58504C41494E5F3231303533312E737265631B
S21440000088DB0120C9594000C5594000C559400009
S214400010C5594000C5594000C55940000000000081
S214400020000000000000000000000000C55940002D
S214400030C559400000000000C5594000C559400061
S214400040C5594000C5594000C5594000C5594000F3
S214400050C5594000C5594000C5594000717F400011
S214400060C5594000C55940000000000045374000D3
S21440007059374000C5594000C5594000C559400051
S214400080C5594000C5594000C5594000C5594000B3
S214400090C5594000C5594000C5594000C5594000A3
S2144000A0C5594000C5594000C5594000C559400093
S2144000B0C5594000C5594000C559400000000000E1
S2144000C000000000000000000000000000000000EB
S2144000D000000000000000000000000000000000DB
S2144000E000000000000000000000000000000000CB
S2144000F0000000000000000000000000C55940005D
S2144001007D424000C559400000000000000000004D
S214400110000000000000000000000000000000009A
S214400120000000000000000000000000000000008A
S214400130000000000000000000000000000000007A
S214400140000000000000000010B5054C237833B9CD
S214400150044B13B10448AFF300800123237010BD55
S214400160F00B002000000000ECC140000C4B43B1F7
S2144001700C480D4910B5AFF300800C48036823B90E
S21440018010BD0A48036833B97047094B002BF7D0B7
S214400190BDE810401847064B002BF5D0184700BF67
S2144001A000000000ECC14000F40B0020ECC1400011
S2144001B00000000010B5074B196891F82230003354
S2144001C018BF01234A7C096803480078034CA047BF
S2144001D010BD00BF0C0C0020150C0020D1114000B3
S2144001E008B104207047334B9A68530903F500134F
S2144001F003F207735B02D96B02F01F02012303FA76
S21440020002F20A4210D02B4B9B7B012B04D00422D7
S214400210284B9A7302207047274B1B78002BF6D04A
S2144002200022264B1A60F2E710B5224B9B7B042B2C
S21440023005D0012B19D0032B2CD1032010BD012251
S2144002401C4B9A731D4B1B683BB91B4B1A701B4BC0
S2144002501B4959601A60022010BD0022164B1A70C6
S2144002601848194B9847022010BD134B1B783BB1DA
S214400270124B1B6813F4803F1AD000220F4B1A60B3
S2144002800C4B02229A73114A1A6001225A740022B9
S21440029083F8222000220E4B1A70064C0D4B1C6031
S2144002A00D4B9847A07B022814BF0020012010BDAC
S2144002B0022010BD94000020140C002010E000E046
S2144002C0F86C72009364410001000020801A06001A
S2144002D0150C00200C0C0020B501400038B5049CDD
S2144002E0520242EAC36242EA017242EAC07221788E
S2144002F0114341F23430054B9847054608B9284625
S21440030038BD034B98472070F9E700BFF91340000B
S214400310111440002DE9F0410B4C00270B4E0C4DBC
S214400320394641F60D30B047804650B1A847C0B276
S21440033038B1013CF4D107490748084B98474FF07D
S21440034000084046BDE8F081410D0300F913400027
S2144003501114400000B34000C4B4400095834000F0
S21440036010B582B00D4B1B6899890123009310226B
S21440037091400B480B4CA047034610B9184602B0B4
S21440038010BD064B186801211230074B98470346AC
S2144003900028F3D0054B98470346EFE70C0C0020A7
S2144003A00911080071124000911440000D154000DC
S2144003B008B5044B1B7803B108BD0020024B984794
S2144003C0FAE700BF150C00201112400008B50B20BC
S2144003D0054B98470422054B9A73FF22044B1A702C
S2144003E0044B984708BD00BF4D384000940000209D
S2144003F0150C0020A11140002DE9F04387B07D4B3D
S21440040098470446012805D07B4B9847204607B0BE
S214400410BDE8F083794B1B680122DA7300251D7412
S2144004209D817748774B9847774B984729464FF4B6
S2144004308850764B984748B97548724B98476F4BEB
S2144004401B6803249C736C4B9847DFE74FF4D571C9
S21440045045F208506D4B984718BB4FF000090021F5
S21440046044F20550694B9847002831D0694B98476D
S21440047010F0E04F30D041F2893544F20558634ED3
S214400480644F00F4FC114046B04700284FD0B847B0
S214400490002851DB013DF4D15F496048594B9847ED
S2144004A0CAE75C4B9847B0F1FF3F00F0F182C0F3DB
S2144004B00B03B3F5D57F05D0024659495948514BF1
S2144004C09847B9E758484F4B98474FF00109C6E759
S2144004D0514956484B4B9847484B1B68DB7B13F0BB
S2144004E0010F35D1454B1B68DB7B13F0040F40F002
S2144004F05682424B1B68DB7B03F00903012B00F05E
S214400500BD823E4B1B68DB7B13F0010F03D0484B8C
S2144005109847002890D0474B98474748394B9847CC
S214400520364B1B6800229A73334B98476EE73A491E
S2144005303E48344B98477FE710F0006F04D12F4B6E
S2144005401B680422DA73CDE72C4B1B680522DA734E
S2144005504FEA897941F6EF354FF000082B4E2D4F84
S214400560414641F23710B04788B1494641F229101A
S214400570B047002839D0B84710F0010F6CD0013D85
S214400580EED102462D492E481E4B984703E02B4994
S2144005902C481C4B98472C481A4B9847174B1B68BF
S2144005A00222DA7300214FF48850184B98470028EF
S2144005B03FF442AF41F6EE354FF00008134E154F6C
S2144005C0414641F20110B047002800F0D480B847B9
S2144005D010F0010F00F0D780013DB5F1FF3FEFD19D
S2144005E01A491B48074B984726E714491948054BB4
S2144005F09847D0E7E1014000B10340000C0C0020D2
S21440060050B340009583400039124000F913400033
S21440061078B4400011144000E8B24000B0B3400047
S214400620F8B2400068B3400090B34000A0B340002A
S21440063015034000B5014000B0B44000D8B24000B9
S214400640F4B34000CCB340009CB44000C8B2400075
S2144006505CB44000E0B34000002140F23A50AB4B5F
S2144006609847002800F08280A94B984710F0804FAA
S21440067005D0A84B1A68D37B43F00803D3730021F8
S21440068041F23B10A14B984700283FF4D5AEA14B12
S2144006901B68DB7B13F0010F3FF424AF9E4B98475B
S2144006A000283FF4C9AE9B4B1A68537D03F0070001
S2144006B09A4951F820004FF47A7101FB00F1C3F3D8
S2144006C0C303974850F8233003FB01F31360937C31
S2144006D09B0940F04381917E507E137E9B0243EA05
S2144006E0800343EAA113107FD17E490041EAE0111E
S2144006F0C3F30B03013301F0070102318B40D17D78
S21440070001F00F018B409B0A53609189090441F226
S21440071037107E4B984700283FF48EAE0123009357
S214400720082200217F48804DA84700283FF484AE29
S214400730012104A87D4B984700283FF47DAE7C4BB2
S214400740984700283FF478AE9DF8103003F00F032A
S214400750012B00F01581002B00F00D81022B00F0DC
S21440076014816C4B1B6810221A74BBE671497248A0
S214400770724B98470FE7C5F5DF520E327049714805
S2144007806E4B984758E6002140F23A505F4B9847E8
S21440079028B35F4B984700F0C040B0F1804F05D17A
S2144007A05C4B1A68D37B43F00803D373002141F2B5
S2144007B03B10564B984700283FF43EAE564B984762
S2144007C000283FF439AE534B1A68937CC3F3830337
S2144007D0013B032B08D8DFE803F07376797C584951
S2144007E05548564B984727E612231374537DC3F358
S2144007F0C30003F00703494951F823104FF47A73B6
S21440080003FB01F3504951F8201003FB01F313603A
S214400810917E507E137E9B0243EA800343EAA113F7
S214400820C3F30B0340F6FF718B420FD0107FD17E8F
S214400830490041EAE011013301F0070102318B40E3
S214400840D17D01F00F018B409B0A5360137C3F2BF8
S2144008504BD90021009101234FF400723B48324DA2
S214400860A84700283FF4E8AD0025394E03A8B04716
S21440087000283FF4E1AD0135ADB2322DF6D1254B1F
S2144008801B689A7E597E1B7E9B0243EA810343EA9D
S214400890A213C3F30B0340F6FF7293420ED12C4EC5
S2144008A004A8B04700283FF4C7AD0135ADB2352D9A
S2144008B0F6D9184B1A68049B5B085360244E12E026
S2144008C01423137492E7222313748FE73023137490
S2144008D08CE74023137489E704A8B04700283FF408
S2144008E0ABAD0135ADB27F2DF6D94FF4007141F274
S2144008F01010064B984700283FF49EAD154B98477E
S21440090000283FF499AD144B984706E6F91340008B
S214400910111440000C0C002061034000E0B440007D
S214400920FCB440003311080071124000911440009E
S2144009300D154000D8B2400024B4400095834000D6
S214400940C8B2400038B4400010B340000811080058
S2144009501D14400015034000B5014000D17E907E36
S214400960537E1B0443EA00230B43C3F315030133B2
S2144009705B025360C9E6484B1B6810221A74B1E507
S214400980454B1B681A221A74ACE59DF81230DB09F9
S214400990414B1B6814BF302220221A74A2E5092559
S2144009A000273E4EA5F1090303AA134400933B4695
S2144009B02A4639463846B04701350D2DF2D19DF8C6
S2144009C00D309DF80C9009EB03299DF80E3009EB8D
S2144009D003499DF80F3009EB03694E464FF0000877
S2144009E02E4F0BE09DF81130002B3FF425AD02331F
S2144009F01E4409F580739E423FF61EAD002504ABAB
S214400A002B4400934346AA1941464046B847013511
S214400A10032DF4D19DF81030FF2B3FF40DAD222B63
S214400A20E0D19DF81230002BDCD104AD06F106096A
S214400A304FF00008194F009543463246414640461F
S214400A40B847013601354E45F5D19DF81530322B65
S214400A5028BF3223104A1268C3F3C30003F00703CB
S214400A600F4951F823104FF47A7303FB01F30D49F5
S214400A7051F8201003FB01F313603AE54FF4007180
S214400A8041F21010084B984700287FF43AADD3E463
S214400A904FF00009E3E400BF0C0C0020DD024000EC
S214400AA0E0B44000FCB44000F913400008B5054BE4
S214400AB0984708B1002008BD034B9847034B1B6876
S214400AC0D87B08BDE1014000B10340000C0C00207B
S214400AD008B5054B984708B1002008BD034B98471A
S214400AE0034B1B68586808BDE1014000B103400055
S214400AF00C0C00200020704770B582B00E4615469C
S214400B00154B9847044610B1204602B070BD134BB3
S214400B109847C8B1124B1348012D98BF1846124B40
S214400B201B68DB7B13F0080F08BF76020123009397
S214400B302B464FF4007231460C4EB04740B10C4B3A
S214400B401D800C4B1D80DFE70B4B98470524DBE7E9
S214400B50094B98470524D7E7E101400015034000BC
S214400B6011110800121110000C0C002071124000E8
S214400B70100C0020120C0020B103400010B50C46AB
S214400B80064B984720B90022054B1A80052010BD19
S214400B90034A13881C1B1480002010BD911440008B
S214400BA0100C002010B50446134B984708B9052092
S214400BB010BD84B10022114B1A80114B1B88012BAB
S214400BC00FD0002143F20C100E4B984768B10E4BE5
S214400BD09847002010BD094B1B88002BEDD0002005
S214400BE010BD094B9847002010BD002143F20C1061
S214400BF0044B9847EBE700BF0D154000100C002053
S214400C00120C0020F9134000B103400070B582B0CA
S214400C100E461546114B98470446C0B9104B11482E
S214400C20012D98BF1846104B1B68DB7B13F0080F4E
S214400C3008BF7602012300932B464FF400723146DC
S214400C400A4EB04730B10A4B1D800A4B1D802046E5
S214400C5002B070BD084B98470524F8E7E101400014
S214400C6018910800199110000C0C002071124000D9
S214400C70100C0020120C0020B103400010B50C46AA
S214400C80064B984720B90022054B1A80052010BD18
S214400C90034A13881C1B1480002010BD1115400009
S214400CA0100C002010B50446094B984708B905209B
S214400CB010BD34B10022074B1A80074B98470020DE
S214400CC010BD044B1B88002BF7D0002010BD00BF82
S214400CD091154000100C0020B103400010B50446AA
S214400CE00F4B9847012818D018B1022810D0012081
S214400CF010BD0C4B1B5D0BB1022010BD20460A4BAD
S214400D00984700F00300002814BF0020022010BDC2
S214400D100022044B1A55022010BD032010BD00BF10
S214400D20F9034000180C0020AD0A400008B500202A
S214400D30014B984708BD00BFDD0C400038B504465F
S214400D400D46044B98474000013828602046024B29
S214400D50984738BDD10A4000DD0C400008B5014632
S214400D600020014B984708BD3D0D4000014B1870D0
S214400D7001207047180C002008B50020014B98470A
S214400D8008BD00BFF50A4000012070472DE9F84332
S214400D901446264B984728B102280CBF0220012053
S214400DA0BDE8F883631C9BB20125214FDFF88C9089
S214400DB0DFF88C8005E000201E4B984740BB00259E
S214400DC023465C1EA4B2EBB12CB304F0010601210D
S214400DD0002E0CBF40463846174B9847A8B9002D02
S214400DE0E9D100234FF400729E420CBF394641467B
S214400DF00120C8470028DED101200E4B984701202D
S214400E00BDE8F8830020BDE8F8830120BDE8F883FC
S214400E100120BDE8F883002DD1D100234FF40072A5
S214400E2039460120C8470028C9D1E5E7F90A4000FD
S214400E3030A70120A50B40007D0B4000A52A4000AE
S214400E4030A9012008B50A4601460020014B9847C4
S214400E5008BD00BF8D0D40002DE9F8431446264BD3
S214400E60984778B102280CBF02200120BDE8F883DD
S214400E7015B10120BDE8F8830120204B984701209A
S214400E80BDE8F8830125DFF874801D4F1D4E09E04C
S214400E900020BDE8F8830120BDE8F883A4B9013CF2
S214400EA0A4B200254FF6FF739C42F1D0002DF5D139
S214400EB004F00100012100280CBF30463846124B92
S214400EC098470028E7D184B104F0010100234FF48D
S214400ED0007299420CBF394631461846DFF82C90CE
S214400EE0C8470028C4D0002DD9D10020C0470028CC
S214400EF0D5D00120BDE8F8830D0C4000A50C40007D
S214400F0030A7012030A901207D0C4000A52A4000D2
S214400F1008B50A4601460020014B984708BD00BF69
S214400F20590E400010B5144601220A4B984720B18E
S214400F3002280CBF0220012010BD01212046064B8E
S214400F40984708B1012010BD044B9847003018BFA1
S214400F50012010BDF90A40007D0B4000A50B400063
S214400F6008B50A4601460020014B984708BD00BF19
S214400F70250F400010B5144601220A4B984720B171
S214400F8002280CBF0220012010BD01212046064B3E
S214400F90984708B1012010BD044B9847003018BF51
S214400FA0012010BD0D0C40007D0C4000A50C4000FB
S214400FB008B50A4601460020014B984708BD00BFC9
S214400FC0750F400000B583B002A9FF2301F8013D2C
S214400FD001220A480A4B98470A4B1B88012B0CBF34
S214400FE0FE23FC238DF8063001220DF1060103484E
S214400FF0034B984703B05DF804FB00BF00840040F5
S214401000F5174000220C002070B582B002ACFF23DA
S21440101004F8013D0F4E0122214630460E4DA847AA
S214401020012221463046A847012221463046A8479D
S2144010300A4C9DF80730FF2B08D001220DF107011E
S2144010403046A847013CF4D1002000E0012002B021
S21440105070BD00BF008400402B184000400D0300C8
S214401060164B1A88012A27D0154B1988154B1B6832
S214401070B3FBF1F39A4202D901231846704770B584
S21440108082B002ACFF2304F8013D0F4E01222146F8
S21440109030460E4DA847FD238DF8073001222146E5
S2144010A03046A8470A4B9847034610B90521094AD7
S2144010B01170184602B070BD0123DEE7220C0020F6
S2144010C01A0C0020280C002000840040F517400031
S2144010D009104000200C0020F0B583B002AD00237C
S2144010E005F8013D104C114F114E01222946384655
S2144010F0B0479DF8073013F0F00F08D0FE2B10D005
S214401100013CF2D104220B4B1A70002007E013F08A
S214401110070F14BF07220B22064B1A70002003B09D
S214401120F0BD0120FBE700BF20A10700008400407F
S2144011302B184000200C002010B582B002A94FF6B4
S214401140FF7321F8043D124C02222046114B98476B
S21440115001220DF1070120460F4B98479DF80730B6
S21440116003F01102012A05D001220C4B1A70002010
S21440117002B010BD03F01E03042B07D00A2B0CBF91
S21440118008220A22054B1A700020F1E70120EFE7FB
S21440119000840040F51740002B184000200C00202B
S2144011A00022084B1A70084B1B6913F4803F00D08E
S2144011B0704710B5044C2046044B984701232360E3
S2144011C010BD00BF200C002000840040BD1640002B
S2144011D070B582B00022094B1A70094C04EB8004AB
S2144011E0084D00920B4621462846074EB0472146FA
S2144011F02846064B984702B070BD00BF200C002022
S2144012001C0C00200084004025174000A517400015
S21440121008B50022044B1A70044901EB80010448CB
S214401220044B984708BD00BF200C00201C0C002033
S21440123000840040D5174000F0B583B002ADFF23D0
S21440124005F8013D0022074B1A700A24064F074E48
S214401250012229463846B047631E13F0FF04F7D1F3
S21440126003B0F0BD200C002000840040F51740007D
S2144012702DE9F04385B0044691469846FF238DF805
S2144012800F300023534A137000F03F0242F04002F2
S2144012908DF808200A0E8DF809200A0C8DF80A20D1
S2144012A00A0A8DF80B208DF80C1002AF4FF0080C90
S2144012B00DF10D0E01E0774512D017F8011B62467E
S2144012C05B00DBB283EA010010F0800F18BF83F0AA
S2144012D009034900C9B2013A12F0FF02F0D1EAE729
S2144012E05B0043F001038DF80D303B4F01220DF1BA
S2144012F00F013846394DA847062202A93846A84766
S21440130004A9FF2301F8093D01223846344B98478B
S2144013100727314E324D01220DF107013046A847CE
S2144013209DF8073013F0800F0BD07B1E13F0FF079D
S214401330F1D10222274B1A700023184605B0BDE8AB
S214401340F083284A136013F0080F19D113F0040FE6
S2144013501BD133F001031DD114F4005F1FD114F4E8
S214401360007F25D114F4806F2AD11F4BA3F800903C
S2144013701E4BA3F8008000221D4B1A600123DCE7B9
S2144013800622144B1A700023D7E70922114B1A7015
S2144013900023D2E701220F4B1A700023CDE7154BEE
S2144013A0984703460028DAD103210A4A1170C4E759
S2144013B00C4900230B6001220748094B9847D1E7A8
S2144013C0084C042221460448054B984723681BBA1C
S2144013D02360CAE7200C002000840040F517400038
S2144013E02B184000240C00201A0C0020220C002051
S2144013F0280C00200910400010B582B00022009250
S2144014001346024CA04702B010BD00BF7112400008
S214401410014B1868704700BF240C002010B582B0FE
S21440142004460022144B1A70144B1A88144B196841
S214401430B1FBF2F302FB13131BB9124B984703465A
S21440144080B1042221461048104B98470C4A136836
S21440145004331360094A1188B3FBF1F201FB1233DF
S2144014601BB10123184602B010BD022201A906484E
S214401470064B98470123F5E7200C00201A0C002065
S214401480280C0020D9104000008400402B18400053
S2144014902DE9F04F83B00022164B1A7039B34C1E1C
S2144014A0A4B281461546DFF85CB0DFF85C80124F88
S2144014B0D8478246B8B1B8F8002009EB050138464F
S2144014C00E4EB047B8F800100D440D4A13680B4452
S2144014D01360022201A93846B047013CA4B24FF639
S2144014E0FF739C42E4D1504603B0BDE8F08F4FF006
S2144014F0010AF8E7200C0020008400402B1840002A
S214401500280C0020D91040001A0C002001207047FB
S2144015102DE9F84381460025154B1D70DFF86C8099
S214401520144E154F00E021464C1EA4B2D9B1C04718
S214401530328809EB05013846104B984731880D44F0
S2144015400F4A13680B4413600E4B9847034658B136
S214401550002CE8D00C4B984703460028E3D10521E1
S214401560034A117000E001231846BDE8F88300BF27
S214401570200C00201A0C002000840040F517400084
S214401580280C00203911400009104000C50F4000CB
S21440159008B5064B984728B903460521044A1170FA
S2144015A0184608BD034B98470346F9E70910400024
S2144015B0200C002061104000002A6BD02DE9F04F2F
S2144015C083B005460E4693468B44DFF8E480324CA3
S2144015D0324FDFF8E0A0DFF8E09031E001A9404666
S2144015E0A0470028FAD1019B337032E001A9484653
S2144015F0A0470028FAD1019B33702DE001A9284866
S214401600A0470028FAD1019B337028E001A925485D
S214401610A0470028FAD1019B337023E001A9224855
S214401620A0470028FAD1019B33701DE001A91F484E
S214401630A0470028FAD1019B337001365E4525D07D
S214401640002301934545C9D04D45CFD0144B9D420C
S214401650D4D0144B9D42D9D0134B9D42DED0134B71
S2144016609D42E3D0554509D0BD42E6D101A9384652
S214401670A0470028FAD1019B3370DEE701A9504607
S214401680A0470028FAD1019B3370D6E7002003B06C
S214401690BDE8F08F00207047AD594000004203403F
S2144016A0004202400082014000C2014000820040E9
S2144016B000C20040000204400002024038B5044622
S2144016C0134D2846134B984702212846124B9847FD
S2144016D080232360636843F001036360636843F0DC
S2144016E010036360636823F0800363600021204634
S2144016F00A4B9847636823F002036360636823F0ED
S2144017000403636000212046054B984738BD00BF60
S21440171000800040B533400041354000953A4000D7
S214401720AB3A40002DE9F04104460D4616461549B1
S2144017301846154B9847074600231A462968204600
S214401740DFF85C80C0470822296820460F4B984740
S214401750FAB2296820460E4B984708222968204648
S2144017600C4B98477208296820460B4B984786F0E2
S214401770010202F0010229682046084B9847BDE85E
S214401780F08100BF00809303533B40003F3B400046
S214401790693B4000F93A4000BD3A4000DB3A400021
S2144017A0913B400008B5436813F0040F06D0096823
S2144017B00F2900D908BD064B984708BD096803297C
S2144017C0F8D8012303FA01F1C943014B9847F1E7E2
S2144017D0953A400010B50446236913F4007FFBD0C9
S2144017E00F212046024B98474FF08073236010BD70
S2144017F0953A40001AB110B40C46114406E0002059
S214401800704714F8013BC360A1420CD043F69923BD
S214401810026912F0020FF4D1013BF9D16FF00200D9
S2144018205DF8044B70470020FAE73AB170B41546AD
S2144018300C460D44FF2640F2012112E0002070477E
S214401840C66043F69923026931EA020204D0013B9E
S214401850F9D16FF002000EE0836804F8013BA54220
S2144018600BD043F69923026912F0020FE8D1013BF0
S214401870F9D16FF0020070BC70470020FBE7000013
S2144018804022014B1A637047000E0E404022014B27
S2144018901A637047000E0E404022014B5A63704751
S2144018A0000E0E407047704770477047704770474D
S2144018B00A4BA3FB00239B094FF47A7202FB1300EA
S2144018C080B218B94022064B5A637047B0F5FA7F8B
S2144018D002D14022024B1A63704700BFD34D6210BC
S2144018E0000E0E40C82822D82DE9F8430D469046F3
S2144018F00B18C82B1DD8F9B1124E06EB40264FF0F8
S2144019000009114F7F2D94BF2C468024E2B24B46EF
S214401910520231464046B84788B1E4B22C1BA5B2C5
S21440192006F50076002DEDD10020BDE8F8830120B5
S21440193070470120BDE8F8830020BDE8F883012009
S214401940BDE8F883300C0020A52A4000034B1B78E6
S214401950002B14BF02200020704700BF2C0C002034
S214401960044B1B780BB102207047C723036000204E
S214401970704700BF2C0C00200020704701207047A5
S214401980014B1870012070472C0C002008B501222E
S214401990014B984708BD00BFE518400008B5002237
S2144019A0014B984708BD00BFE5184000431CC82BB4
S2144019B001D90120704710B50C460346C72828BFFA
S2144019C0C7234FF40072044901EB43212046034BE2
S2144019D09847002010BD00BF300C0020BD8340005B
S2144019E008B5431CC82B01D9012008BD4FF400722E
S2144019F0034B03EB4020034B9847002008BD00BF35
S214401A00300C0020BD83400010B500200A4B98479C
S214401A100A4CA0470028FCD0094B9847094A0A4B75
S214401A20DA620A4CA0470028FCD00020084B9847B2
S214401A30084B984710BD00BFD1374000F5374000EF
S214401A4031384000013FB80500040E403D384000A4
S214401A50853940009939400010B5A2B01848194B56
S214401A6098470020184B9847184CA0470028FCD0B1
S214401A70174B9847174A184B9A62184CA0470028AD
S214401A80FCD01020164B9847164B984716480D4BDF
S214401A909847164B1A68164B1344164A934201D978
S214401AA022B010BD2023009302AB0F220E21124815
S214401AB0124CA047BDF848101148124B9847EFE724
S214401AC0000E27078D5B4000D1374000F5374000B9
S214401AD015384000013F4D0E00040E4021384000AE
S214401AE06D374000A55A4000008093030002002056
S214401AF0C0D3BDF980C3C901000A0E400D000020C6
S214401B0010140E40AF3B400002207047012801D918
S214401B100120704708B500EB8000024B53F8303088
S214401B20984708BD3CB54000012801D901207047C0
S214401B3008B500EB8003034800EBC3035B68084628
S214401B40984708BD3CB5400001288CBF00200120C6
S214401B5070470000012801D90020704708B500EB07
S214401B608000054B03EBC000836813B108469847D6
S214401B7008BD81F0010008BD3CB54000012801D9F0
S214401B800120704708B500EB8000034B03EBC00014
S214401B90C368984708BD00BF3CB54000012801D93E
S214401BA00120704708B500EB8000034B03EBC000F4
S214401BB00369984708BD00BF3CB54000012806D8D9
S214401BC000EB8000034B03EBC000406A70470020E8
S214401BD0704700BF3CB5400070B504460D461646FB
S214401BE0094B9847012C04D90124084B98472046B6
S214401BF070BD04EB8404064B03EBC40463693146B2
S214401C00284698470446F0E7A9184000AB1840001D
S214401C103CB5400070B504460D461646094B9847FD
S214401C20012C04D90124084B9847204670BD04EB8C
S214401C308404064B03EBC404A36931462846984700
S214401C400446F0E7AD184000AF1840003CB54000F1
S214401C5070B504460D461646094B9847012C04D9E4
S214401C600124084B9847204670BD04EB8404064B7D
S214401C7003EBC404E3693146284698470446F0E738
S214401C80A9184000AB1840003CB5400070B504466B
S214401C900D461646094B9847012C04D90124084B9B
S214401CA09847204670BD04EB8404064B03EBC404FF
S214401CB0236A3146284698470446F0E7AD18400068
S214401CC0AF1840003CB54000024A1378013BDBB2F7
S214401CD0137070473B9C01200020704700207047DF
S214401CE07047000008B50020104B1870104B188045
S214401CF0104BA1221A7020225A70588098800222D7
S214401D00DA8018810C4B4FF4E1321A601871587122
S214401D1008229A71094B9847024620B103490B782E
S214401D200133DBB20B70104608BD00BF3B9C012060
S214401D30D09E012068A10120349C012011834000E0
S214401D40454B1B7803B1704770B584B0434B9847FA
S214401D50002842D0424B1C88424B9847844279D058
S214401D60EFF31083B3FA83F35B09039372B6BFF3C2
S214401D705F8F00223C4B1A70039D3C4B1C78E4B2AC
S214401D803B4B33F81430002B2ED00022394B1A80B0
S214401D90394B1B78002B43D1B4FA84F35B09334AA2
S214401DA0137001222C4B1A7025B12F4B1A70BFF3BB
S214401DB05F8F62B626462E4B33F81430B3F5A07FBD
S214401DC014BF0125002534D0244B984700282BD03B
S214401DD0244B9847224B18802EE0214B1C88274BDB
S214401DE098478442BCD135E0224A13880133138099
S214401DF01A4B984718B91F4B1B88632B08D9174BAB
S214401E0098470028C1D01B4B1B88B3F5487FBCD2EF
S214401E1005B30122144B1A70BFF35F8F62B619E008
S214401E20B4FA84F46409BCE7144B98470C4B18800A
S214401E3002E000220A4B1A800D4B33F8163004EBB2
S214401E4084040F4A00920F4A02EB841229468420EB
S214401E500D4CA04704B070BD64A10120814F4000E6
S214401E6060A10120ED4F4000FC0100205CA1012054
S214401E7058A10120309C0120D49E0120DD4F400017
S214401E808D1E4000D89E0120CD54400000B17047C2
S214401E9008B5074B1B78B3FA83F35B09054A22F86B
S214401EA01300054B1870054B1870054B984708BD36
S214401EB05CA1012058A10120D49E012064A10120EC
S214401EC0411D400008B50020014B984708BD00BFA3
S214401ED0411D400008B5064A1378013BDBB213703B
S214401EE01078044B98470022034B1A7008BD00BF79
S214401EF03C9C01201D834000329C012008B5224BAB
S214401F001B7813F0800F05D103F06003202B18D008
S214401F10002008BD03F06003202B01D0002008BD40
S214401F20194B5B78212B2CD1174BDB88072B01D024
S214401F30002008BD144B154A9A6007229A8101205A
S214401F4008BD114B5B78202B03D0222B10D00020ED
S214401F5008BD0D4BDB88072B01D0002008BD0A4B7F
S214401F600B4A1A61094A9A6007229A81012008BDE5
S214401F70054B997801F001010020064B9847012057
S214401F8008BD002008BD00BF44AB0120349C0120A2
S214401F90E11C40002983400082B0EFF31083B3FA7F
S214401FA083F35B09019372B6BFF35F8F00220B4B3E
S214401FB01A7001990A4B188883B20A4A1278D2B22C
S214401FC0094830F8120080B2C01A29B10122034BEA
S214401FD01A70BFF35F8F62B602B07047FC010020F4
S214401FE0C89E0120C49E0120C09E012008B5034B18
S214401FF09847003018BF012008BD00BF991F400019
S21440200010B584B0EFF31083B3FA83F35B09039300
S21440201072B6BFF35F8F00221F4B1A70039B1F4A96
S21440202014781F4A12784AB9E4B21E4A118889B217
S2144020301D4A32F8142092B2914209D253B301227B
S214402040154B1A70BFF35F8F62B6002004B010BD08
S2144020500021144A1180B4FA84F252090F490A70DA
S21440206001210F4A117023B10B4B1970BFF35F8FDC
S21440207062B600200D4B984704EB84040C4B00934B
S2144020804FF4A0730B4A02EB8412012105200A4C40
S214402090A047DBE70020D9E7FC010020C49E0120D2
S2144020A0CC9E0120C89E0120C09E0120ED1F40000E
S2144020B051214000409C0120CD54400010B50024E2
S2144020C0164B1C70164B1C70164B1C70164B1C7017
S2144020D0164B1C805C80164B1C802046154B984740
S2144020E0154B1C70154B1C70154B1C805C80154B9B
S2144020F01C802046144B9847014640B1074A137847
S2144021000133DBB213701378DBB2012B01D00846E3
S21440211010BD01220D4B1A70F9E700BF3C9C012010
S21440212064A10120D49E01205CA1012058A1012079
S21440213060A10120411D4000CC9E0120C49E01208C
S214402140C09E0120C89E012001204000329C0120F4
S21440215000BB10B582B010460F4B1B78B3FA83F322
S2144021605B0951B189B20D4A22F8131000200C4B7E
S21440217018700C4B984702B010BD9A001A440A4B90
S21440218000934FF4A073094901EB82120121084CD9
S214402190A047F0E7704700BFC49E0120C09E0120C4
S2144021A0CC9E01200120400051214000409C01204F
S2144021B0CD54400000207047003018BF0120034B2C
S2144021C018700122024B1A70704700BF36AB0120D0
S2144021D08C01002010B582B0074B00931F23074A9E
S2144021E001210220064CA04708B102B010BD0549A7
S2144021F00220054B9847F8E7DD25400098A10120CE
S214402200CD544000D5214000415840002DE9F041D2
S2144022100023144A1370144A13700123134A137090
S214402220134A1370134B984728B90025124B1D705C
S2144022302846BDE8F081431E0F4A13700F4B98475F
S21440224005460028F4D00024A0460D4F0A4E4146CD
S2144022502046B8470134E4B23378A342F7D2094B5C
S2144022609847E5E78EA101208CA101208C01002033
S2144022708D010020091B4000BCA10120F9824000CE
S214402280551B4000D521400008B5014B984708BD76
S214402290D521400010B582B0074B00930D23074A66
S2144022A000218120064CA04708B102B010BD054968
S2144022B08120054B9847F8E789224000900100208E
S2144022C0CD544000952240004158400008B5064B8A
S2144022D01B7803B908BD0220044B984704490220E6
S2144022E0044B9847F6E700BF8CA10120ED51400013
S2144022F0CD2240004158400008B5064B1B7803B934
S21440230008BD8120044B984704498120044B9847D8
S214402310F6E700BF8CA10120ED514000F9224000B5
S2144023204158400008B5094B9B6843B1084B93F9A8
S2144023300C30002BB4BF81200220064B9847044B3C
S2144023405A68024B5A60044B984708BD90010020DB
S21440235098A10120ED51400095224000054B0022F7
S2144023601A605A609A60DA601A82F0221A700A225C
S214402370DA717047C0A1012070B506460D46144676
S214402380084B98470122084B1A73084B9E70220E42
S214402390DA70220C1A71220A5A719C712A0A1A7330
S2144023A05D7370BD5D23400090010020C0A10120F8
S2144023B008B500224FF410510520014B984708BD40
S2144023C07923400008B5094B1B7B594011F0800F1C
S2144023D003D1074B9B68834205D2064B9847064B72
S2144023E09847002008BD012008BD00BF98A10120E5
S2144023F090010020B12340002523400008B500226C
S21440240011460420014B984708BD00BF7923400081
S21440241010B582B0074B00930B460246012181203F
S214402420054CA04708B102B010BD044B9847044B7A
S2144024309847F8E785244000CD544000FD234000EF
S2144024402523400008B500224FF420510620014BBA
S214402450984708BD7923400008B500224FF46851DC
S2144024600220014B984708BD7923400008B5034B2E
S21440247098470022024B1A7308BD00BF5D234000F8
S2144024809001002000B1704710B50C46044B9847A9
S214402490044B9968091B9960034B984710BD00BFD1
S2144024A06D244000900100202523400070B5234B4A
S2144024B000221A605A609A60DA601A610646A0B135
S2144024C01F4BDD7D1F4A08241D4B5B7C03F03F03FA
S2144024D01C2B0FD03F2B0DD0A54228BF2546802170
S2144024E02846194B984770B970BD154BDD7C174A86
S2144024F00424E9E71C2313700A2353700523D37082
S2144025000C34E4B2E8E70E4B587B114B9847002852
S21440251014BF8023002366B1023CA4B207492202BE
S21440252042EA14240C80CB7029460448094B98474D
S214402530DAE7024A013C14709370F5E774A1012073
S21440254098A101207CA10120C523400078A101204C
S2144025507D1B40001124400010B50446E8B1164AE1
S214402560164B597CD170997C9170D97C5170197DED
S2144025701170134A997D5170DB7D13701088002CC2
S21440258014BF8021002140020E4B984720B10E4BCD
S2144025901C7001220D4B1A7010BD084B587B0C4B1B
S2144025A098470028DBD000224FF41C510720094BE7
S2144025B09847094B984710BD88A1012098A1012053
S2144025C0B8A10120C52340008DA101208EA1012085
S2144025D07D1B40007923400025234000002840F022
S2144025E09081F8B51F2904D1894B1A68894B9A42C5
S2144025F007D00122884B1A70884B9847884B9847DB
S214402600F8BD834B587B00F00F005873854B1B7802
S214402610834264D37E4B9968834A9160DB7B5A2B16
S21440262000F25881DFE813F0BE0056015601600004
S214402630560156015601560156015601560156019D
S2144026405601560156015601560156017000560174
S214402650560156015601560156015601B6002D0147
S214402660560156013E015601560156015601560185
S2144026705601D300560156014E01560152015601ED
S214402680560156015601490156015601560156015A
S214402690560156015601560156015601560156013D
S2144026A0560156015601560156015601560156012D
S2144026B0560156015601560156015601560156011D
S2144026C0560156015601560156015601560156010D
S2144026D0560156015601560156015601BA00534B53
S2144026E09847534B9847F8BD494BDC7C122C28BF83
S2144026F01224802120464F4B984700B9F8BD21460A
S2144027004D484E4B9847F8BD414BDC7C242C28BFA7
S214402710242480212046474B98470028EED03C4B47
S2144027201B7C13F0030F02D1394B5D7C25B13F4B28
S21440273098473F4B9847F8BD354B587B404B98479A
S21440274000280CBF2B4680233E4F7B70304B587B77
S2144027503D4B984707F11006034653F8010F59685A
S2144027609A68DB680FC63B7C002B00F0BD80222BAE
S21440277000F0B980A6F10F01012311F8012B002AC1
S21440278000F0B280222A00F0AF800133DBB2102B7B
S214402790F3D1B1E000202D4B9847F8BD01202B4BDC
S2144027A09847F8BD2A4B9847022808D0032803D0FC
S2144027B040B1284B984707E0274B984704E0274B03
S2144027C0984701E0264B9847194B9847F8BD80211B
S2144027D00820184B9847002890D022490C4B587B2D
S2144027E0214B984702280DD0032806D000283DD01C
S2144027F0184B98470E4B9847F8BD174B98470C4BCD
S2144028009847F8BD154B9847094B9847F8BD00BF09
S21440281098A10120555342438CA10120CD2240006F
S214402820F9224000BCA1012090010020B1234000C5
S21440283025234000C5234000C0A1012011244000AC
S2144028409D1B4000A0010020BD1B4000AD24400061
S2144028500D1B4000FD234000452440005924400005
S2144028606D24400090A10120291B400025484FF4CC
S2144028700033436003681BBA03600821224B984725
S214402880F8BD224BDB7C13F0020F04D1204B984757
S214402890204B9847F8BD83F0010303F001011E4B1F
S2144028A09847F3E7194BDB7C23B11C4B9847194BF1
S2144028B09847F8BD164B9847F9E7154B9847154B80
S2144028C09847F8BD0120164B9847F8BD0020144B9A
S2144028D09847F8BD00224FF400510520114B984709
S2144028E00C4B9847F8BD2B460F482021C218117450
S2144028F00133DBB2102BF9D121460B48024B9847E7
S214402900F8BD704790A101201124400098A10120F5
S2144029106D24400025234000551B4000B123400055
S2144029205925400079234000A001002008B5002228
S214402930044B1A700123044A1370044A1370044B64
S214402940984708BD8EA101208C0100208D010020F3
S21440295005834000224B1B7813F0800F05D103F00F
S2144029606003202B1AD00020704703F06003202B12
S21440297001D0002070471A4B5B78FE2B28D1184BAD
S214402980DB88012B01D000207047154B5B880BBBC2
S214402990134B144A9A60012098817047104B5B781D
S2144029A0FF2B19D10E4BDB88C3B90D4B5B880BB19F
S2144029B00020704710B50C4A13700C4A1370022062
S2144029C00B4CA0478120A0470A4B9847012010BDDA
S2144029D00020704700207047002070470020704756
S2144029E044AB0120BCA101208CA101208EA1012076
S2144029F049564000D521400010B51D4B1C78002C90
S214402A002ED000231A4A13701A4A13701A4B1B789A
S214402A10A3B11A4B1A881A4B19681A4B587B1A4B93
S214402A209847144B1B7803F0FF0283B902281CD04A
S214402A30032817D080B1154B98470FE00F4B1A88E4
S214402A400F4B19680F4B587B114B9847E9E700210D
S214402A50084B1970144603E00E4B98470E4B9847A8
S214402A60204610BD0D4B9847F8E70D4B9847F5E7C5
S214402A708EA101208D0100208DA10120B8A101204A
S214402A8088A1012098A10120D91B4000FD234000C9
S214402A90151C40006D24400025234000452440007E
S214402AA05924400030B583B01D4C247804F0FF050F
S214402AB0A4B114460A46002519490D70A84214BF11
S214402AC0812002206BB1009323460021154DA84774
S214402AD00546E8B1144B9A68121B9A60284603B024
S214402AE030BD124B0093234629460E4DA84778B179
S214402AF00B4A1378002BFCD00D4B1B786BB90A4B56
S214402B009A68121B9A600A4B1D7885F00105E5E726
S214402B100122034B1A700025E0E70025DEE700BFE0
S214402B208C010020CD54400090010020B921400087
S214402B3036AB0120104B1B681A6853881A4403783A
S214402B401844904211D24378042B10D08B4209D0BF
S214402B5003781844904206D24378042B09D08B421F
S214402B60F6D107E0704700207047002070470020ED
S214402B7070470020704700BFE0A1012008B5034B16
S214402B80987800F07F00024B984708BD44AB012080
S214402B90854F4000194B1B784BB3194B1B681B687D
S214402BA01A79824225D970B4164A13605C881C4450
S214402BB0A34220D20025012607E0124A13600FE008
S214402BC01A7813443546A3420CD25A78042AF7D1D1
S214402BD09A788242F4D1DA788A42F1D1002DECD14B
S214402BE0012002E0074A1360002070BC70470020B6
S214402BF07047002070470020F7E700BFDCA10120A7
S214402C00E0A10120E4A101202DE9F843044600217B
S214402C10134B9847804610B94046BDE8F883114BA1
S214402C201B685B6853F82490D9F80C3098470146E7
S214402C3020460B4B984780460028EDD00A4B1C6830
S214402C4005260A4D0A4F31462046A847044610B18D
S214402C508078B847F7E7D9F804309847DCE700BFF4
S214402C60952B4000E0A10120E4A10120352B400037
S214402C703D5140002DE9F0418046104B98470346B1
S214402C80C8B10F4B1C6805260E4D0F4F31462046E7
S214402C90A847044638B18288C1788078B84703464A
S214402CA00028F3D107E0094B1B685B6853F82830CF
S214402CB01B68984703461846BDE8F081952B4000B0
S214402CC0E4A10120352B4000FD4F4000E0A101204B
S214402CD008B5014B984708BD9D4E400070B50D4B5A
S214402CE01B7883B10C4B1B681B681B795BB10024B7
S214402CF00A4E094D2046B0470134E4B22B681B68A3
S214402D001B79A342F6D80022024B1A700122044BCC
S214402D101A8070BDDCA10120E0A10120092C4000F2
S214402D20D2A1012038B50D4B1B78B3B10C4B1B68B4
S214402D301A6812798AB10024094D06E00134E4B2DB
S214402D402B681A681279A24207D95B6853F8243078
S214402D501B69002BF2D09847F0E738BDDCA1012074
S214402D60E0A10120F8B58D4B00229A811A615A6184
S214402D701B7813F0800F14D113F0600F00F0DF8043
S214402D80864B1B7803F01F03012B00F07881834BA2
S214402D901B7803F01F03022B00F0D3810023184654
S214402DA0F8BD7E4AD288002A00F0F48113F0600F06
S214402DB0E6D113F01F0306D178494978062915D085
S214402DC008297DD059B1012B00F08280022BD7D143
S214402DD0724B5B78002B00F0A480002393E1022A1C
S214402DE0D5D102216E486F4B9847C4E06B4B5A884A
S214402DF0130A013B0E2B00F28381DFE813F00F002D
S214402E001D0037008101810181018101810181011D
S214402E10810181018101810181012F00624B186887
S214402E200178604B98475D4BDA889B89934240F225
S214402E30A2805A4B9A819EE0D2B25B4B1B685B7C69
S214402E409342A4D9584B5B6853F832004188554B9F
S214402E509847524B9B6802225A70E4E7524B986858
S214402E60002894D041884F4B9847DCE7D2B2032ADB
S214402E700DD8DFE812F007001100930104000C2182
S214402E804A4A0BE004214A48464B9847CBE7494B11
S214402E9098470028C7D173E7474A0921013A47486F
S214402EA0002312F8014F20F8024F0133DBB28B4269
S214402EB0F7D349000231414801703A4B9847B2E790
S214402EC0012A7FF464AF01213D48364B984752E0D3
S214402ED0324949780A297FF479AF012A40F0CF80F9
S214402EE0374B1B78002B00F0CA802C4B1C79354B97
S214402EF01D682B681B79A34240F2C1800021204602
S214402F00314B984700283FF43BAF6B6853F824306A
S214402F10DB6898472D4B187001211846214B98477F
S214402F2029E0022A7FF433AF1C4B1879284B984788
S214402F30284B1880022118461A4B98471BE013F07E
S214402F401F0340F08580154A5278013A082A7FD8F8
S214402F50DFE812F013007E00D8007E0009007E00F5
S214402F607E007E0044000D4BDB88002B7FF40FAFC5
S214402F70194A0A4B1A61012311E7084BDB88002BDC
S214402F807FF405AF054B5B88012B7FF400AF044A06
S214402F90138823F002031380EDE700BF44AB012003
S214402FA0D2A10120F14F4000E0000020C0B5400013
S214402FB0E0010020A1824000E4010020C40100207E
S214402FC0DCA10120E0A10120952B4000D8A10120E2
S214402FD0AD514000D4A101207D2B4000714BDB88D1
S214402FE0002B7FF4D4AE704B984700283FF4C8AE11
S214402FF06C4B9A786D4B1B685B7C9A423FF7C0AE31
S2144030006B4B9847674B9B786A4A1370002BB2D03D
S21440301003F10053013B654A526802EBC300664920
S214403020086052F833301B79002BA4D00024264683
S214403030624D0F4631462046A84700283FF4A0AED2
S2144030400134E4B23B681B681B79A342F2D892E78E
S214403050012B0AD0022B7FF493AE524B5B78012BA8
S2144030602BD0032B39D000234DE04E4A52780B2A02
S214403070F0D14C4BDB8813B94E4B1B7873B94D4B94
S2144030801B78002B00F08880464B1C794A4B1D6805
S2144030902B681B79A3423AD8002380E6414B1C7923
S2144030A05D882046464B984700283FF469AEE9B213
S2144030B02046424B9847034625E03A4BDB88002B98
S2144030C07FF465AE374B5B88002B7FF460AE354BA4
S2144030D018793C4B9847034615E0324BDB88002B6B
S2144030E07FF455AE2F4B5B88002B7FF450AE2D4CB3
S2144030F02079354B98472079344B9847034602E071
S214403100002300E00023002B7FF449AE38E6002180
S21440311020462F4B984700283FF439AE6B6853F84B
S2144031202450EB68984701462046294B984700288C
S2144031303FF42DAEAB689847034600287FF42FAE89
S21440314025E61C4B1B780BB31B4B1A6813681B7980
S214403150F3B100241E4E184F536853F82450EB68C2
S214403160984701462046B047034600283FF417AE2E
S214403170AB689847034600287FF411AE0134E4B2AA
S2144031803A6811680979A142E6D808E6002306E6BF
S214403190002304E6002302E6002300E60B210D4A46
S2144031A07CE600BF44AB0120C14F4000E000002059
S2144031B0DD2C4000DCA10120E0A10120752C400060
S2144031C0092C40001D53400049564000ED51400038
S2144031D0952B4000F00100202DE9F04180B90C46C7
S2144031E09046002A0FDD8F18084E094D306821465C
S2144031F02B6898470134BC42F8D14046BDE8F08180
S2144032004FF0FF38F9E78046F7E700BF40AB0120B4
S21440321038AB01200138022815D82DE9F0410E467A
S21440322014469AB10D46DFF838800C4FD8F80000A7
S21440323015F8011B3B68984700280ADBA81B013C91
S214403240F4D1BDE8F0814FF0FF3070471046BDE83E
S214403250F0814FF0FF30BDE8F08100BF3CAB01206D
S21440326040AB012038B54FF400444E4B5C600B2019
S2144032704D4DA8470C20A8474C4B40221A61C3F836
S214403280A0201A6304225A61C3F8A0205A66C3F8E5
S21440329090205A655A62C3F880201A6F22F00402C2
S2144032A01A675A6F22F004025A6702221A631A619A
S2144032B0C3F8A0203E494FF400520A630A61C1F8A1
S2144032C0A0200C630C61C1F8A0404FF0C0511966B5
S2144032D0C3F8901059655962C3F88010186F0843B8
S2144032E01867586F20F0C050586759604FF48051A7
S2144032F01966C3F8901059655962C3F88010186F64
S21440330020F480501867586F20F4805058675960F2
S2144033101A66C3F890205A655A62C3F88020196F1F
S21440332021F400511967596F21F4005159675A60CA
S2144033304FF480421A66C3F890205A655A62C3F822
S2144033408020196F21F480411967596F21F480411C
S21440335059675A604FF000525A61C3F8A0205A6627
S214403360C3F890205A655A62C3F880201A6F22F03C
S21440337000521A675A6F22F000525A674FF40062A2
S2144033801A66C3F890205A655A62C3F88020196FAF
S21440339021F400611967596F21F4006159675A603A
S2144033A038BD00BF50140E404D384000000E0E4051
S2144033B000100E40544B1B78FF2B34D000B583B022
S2144033C0EFF31083B3FA83F35B09019372B6BFF34E
S2144033D05F8F00224D4B1A7001994B4A1378013388
S2144033E0137029B10122494B1A70BFF35F8F62B642
S2144033F0474A904218D0474A904223D0464A904285
S2144034002ED0464A904239D0454A904244D0454A0A
S21440341090424FD0444A90425AD0444A904265D057
S21440342003B05DF804FBFEE70720414B98470720B2
S214403430404B9847002107203F4B984707203F4B7B
S2144034409847EDE716203A4B98470720394B984760
S21440345000210720384B98470720384B9847DFE72E
S2144034601520334B98470720324B984700210720BA
S214403470314B98470720314B9847D1E714202C4BC7
S214403480984707202B4B9847002107202A4B984700
S21440349007202A4B9847C3E71320254B984706201A
S2144034A0244B984700210620234B98470620234B61
S2144034B09847B5E70E201E4B984706201D4B984769
S2144034C0002106201C4B984706201C4B9847A7E730
S2144034D00920174B98470620164B98470021062090
S2144034E0154B98470620154B984799E70820104BF0
S2144034F0984706200F4B9847002106200E4B9847CA
S21440350006200E4B98478BE730AB0120FC0100208D
S21440351000400340000004400080004000C00140DE
S21440352000800140004002400000024000C00040D1
S2144035304D38400071394000213940005D39400027
S21440354001607047064BD3F8142122F44062C3F85A
S2144035501421D3F8202142F00102C3F820217047FD
S21440356000020E404264B1F1805F1FD014D891B182
S214403570B1F1006F23D110B4016F046FD3432140E3
S2144035801C4619400167436F416F0B402340436719
S21440359042605DF8044B7047B1F1405FFBD0B1F13B
S2144035A0605FF8D0B1F1205F09D17047036F1343D5
S2144035B00367436F416F0B4023EA02034367426051
S2144035C07047416412F0010F14BF4166016612F065
S2144035D00A0F14BF0162416212F0020F07D112F0C7
S2144035E0080F18BFC0F88410416101607047C0F8EA
S2144035F08010F9E710B4019C41644CB901664BB1A8
S21440360001654AB94163016101605DF8044B70474A
S2144036104166F4E74165F4E70163F4E7C06C704740
S214403620806C704770B582B00D46430903F50013B1
S21440363003F207735C0201F0F043B3F1205F31D030
S21440364016D8B3F1006F1BD0B3F1805F16D100F0EF
S2144036501F000126864032464FF080512046224BBE
S214403660984715F0010F14BF66662666012017E0DE
S214403670B3F1405F21D0B3F1605F1ED000200FE071
S21440368000F01F000126864032464FF0006120467B
S214403690154B984715F0010F14BF66662666012045
S2144036A002B070BD00F01F0101262A4606FA01F15D
S2144036B020460E4B98473046F2E705F0605200F041
S2144036C01F01012605EA06030093C5F38003B2F105
S2144036D0605F14BF0022012206FA01F12046044C26
S2144036E0A0473046DCE700BF65354000C3354000A4
S2144036F0F53540002DE9F041044688460E4B984784
S214403700054620460D4B9847054013D00C4C04F117
S214403710600603E0B4420DD010345DB120684045E9
S214403720F8D161682942F5D0E3689847636825EA8E
S2144037300305EFE7BDE8F0811D3640002136400026
S214403740E8A1012008B50B210148024B984708BD67
S214403750000E0E40F536400008B50C210148024BDD
S214403760984708BD00100E40F5364000174A136BC8
S21440377023F0700318431063936E13F0080F0AD1BA
S2144037804FF4006311498A6E12F0080F03D1013BD3
S214403790F9D1012070470D4A136B23F0030343F021
S2144037A002031363936E13F0080F0AD14FF40063BD
S2144037B006498A6E12F0080F05D1013BF9D1012067
S2144037C07047002070470020704700BF00040E403E
S2144037D0012803D0054A064B1A607047044A93688E
S2144037E043F0254343F480139360F3E7080000A5B5
S2144037F010140E40054B5B6913F0800F1DBF044B41
S214403800986EC0F3C0100020704700BF10140E40E2
S21440381000040E400022014B9A62704700040E409E
S214403820024B986E00F00200704700BF00040E4046
S2144038300022014BDA62704700040E40024B986E3D
S21440384000F00400704700BF00040E4032281ED827
S2144038501F280CD8114B9A6901238340934318D0F4
S214403860012303FA00F00D4B186100207047203802
S2144038700A4BD3F808210123834093430BD00123FE
S21440388003FA00F0054BC3F8000100207047012002
S2144038907047002070470020704700BF00040E406D
S2144038A0322822D81F280ED8114B9A69012383400C
S2144038B0934301D000207047012303FA00F00C4BDD
S2144038C05861002070472038094BD3F8082101235F
S2144038D08340934301D000207047012303FA00F051
S2144038E0034BC3F80401002070470120704700BF17
S2144038F000040E40094A02EB8002136C23F00703D3
S214403900194311644FF4807303FA00F0034B1A68AE
S214403910024202D09A6E1042F9D0704700040E4020
S21440392041F004010C4B00F1100243F822109A6E4D
S2144039304FF4807303FA00F0024209D14FF400635B
S21440394005498A6E024205D1013BFAD101207047F3
S214403950002070470020704700040E404FF48073EC
S21440396003FA00F0014B1860704700BF00040E4099
S2144039704FF4807303FA00F0014B5860704700BF65
S21440398000040E40000200F4706040F00100014B5D
S2144039909863704700040E408022014B1A607047BF
S2144039A000040E40034B1A6FC0F312001043186712
S2144039B0704700BF00040E40024B187880F00100AC
S2144039C0704700BF58A2012030B485688468A5427D
S2144039D003D085688468AC42FBD161B1C4F3015022
S2144039E000EB8005C4F3034000EB450014F4800F61
S2144039F018BF0C30086042B1C4F3023101EB8101BC
S214403A00C4F3032000EB4101116043B1C4F302123A
S214403A1002EB820204F00F0404EB42041C6030BC4C
S214403A207047F0B4049EC568C468A54203D0C56814
S214403A30C468AC42FBD199B1C4F3033000EB8000BC
S214403A40C4F3032707EB4007C4F3021000EB8005DE
S214403A5004F00F0000EB4500642505FB007008608D
S214403A6042B1C4F3005081000844C4F3034101EB63
S214403A704001116043B1C4F3017202EB8202C4F309
S214403A80036101EB42021A6016B1C4F3425434603B
S214403A90F0BC7047436823F44033436043680904EE
S214403AA001F44031194341607047436823F07F4337
S214403AB04360436843EA01614160704732B900EBB6
S214403AC08100036B23F001030363704700EB810022
S214403AD0036B43F001030363704732B900EB810088
S214403AE0036B23F002030363704700EB8100036B14
S214403AF043F0020303637047042A03D06AB1082ADE
S214403B0016D0704700EB8100036B23F00803036375
S214403B10036B43F004030363704700EB8100036BC1
S214403B2023F008030363036B23F004030363704727
S214403B3000EB8100036B43F008030363E1E700EB0F
S214403B4081010B6B23F0F0030B630B6B1A430A6384
S214403B507047431E1944B1FBF0F0431EFE2B94BF42
S214403B6000B24FF0FF3070477AB110B4144600EB05
S214403B7081010B6B23F47F430B630A6B42EA0422FA
S214403B800A6300205DF8044B70474FF0FF307047E3
S214403B9010B400EB8101086B80B208630C6B44EAFA
S214403BA0036343EA02430B635DF8044B7047C36903
S214403BB0490201F4F05141F0B44141F4807123F4DC
S214403BC0F0531943C161704782B0014628BB244B6D
S214403BD01B781BB9224B197002B07047214B1B78DB
S214403BE003B9FEE7EFF31083B3FA83F35B09009360
S214403BF072B6BFF35F8F00221B4B1A700098194AAB
S214403C001378013B13700028E4D00122164B1A703B
S214403C10BFF35F8F62B6DDE7FEE7114B1B78002BE4
S214403C20D8D1104B1B78FF2BF6D0EFF31083B3FAA6
S214403C3083F35B09019372B6BFF35F8F00220A4B92
S214403C401A700198074A1378013313700028C1D0C0
S214403C500122054B1A70BFF35F8F62B6BAE700BF0A
S214403C605AA2012030AB0120FC010020034A002369
S214403C70136153619381024A1370704744AB01202D
S214403C8060A2012082B00522104B1A70104A136BB6
S214403C900093009B43F04F030093009B43F02003A8
S214403CA00093009B136300230193019B132B06D8BC
S214403CB000BF019B01330193019B132BF8D9044AA3
S214403CC0136B13F0200FFBD002B0704760A20120A8
S214403CD00040044082B00322104B1A70104A136B07
S214403CE00093009B43F04F030093009B43F0100368
S214403CF00093009B136300230193019B132B06D86C
S214403D0000BF019B01330193019B132BF8D9044A52
S214403D10136B13F0100FFBD002B0704760A2012067
S214403D200040044008B5024B1B6903B1984708BDE4
S214403D3044AB012030B58DB0834B1B78032B36D077
S214403D40824B1B88824A9489E41AA4B2002C5ED126
S214403D50804A11880B449BB213807D4AD2889A428F
S214403D6003D07D4B1B78002B45D00422764B1A702F
S214403D707A4A136B0393039B43F04F030393039BCF
S214403D8023F001030393039B136300230493049BD4
S214403D90132B06D800BF049B01330493049B132BBC
S214403DA0F8D96E4A136B13F0010FFBD121E06B4A32
S214403DB0136B0193019B43F04F030193019B23F048
S214403DC001030193019B136300230293029B132B71
S214403DD006D800BF029B01330293029B132BF8D9EF
S214403DE05E4A136B13F0010FFBD15D4B98475D4B5A
S214403DF098470DB030BD564B5B69002B77D098473F
S214403E00002874D00022514B1A80514B9C893F2C7D
S214403E106DD90022504B1A7040244D4B98684B4B3E
S214403E201D88EFF31083B3FA83F35B090B9372B6E6
S214403E30BFF35F8F00224C4B1A700B99474B1B6B9E
S214403E4013F0020F57D14CB128440246434D12F8A6
S214403E50013B2B65131ADBB2A342F8D33B4B1A88BF
S214403E6014441C803D4A136B0793079B43F04F0353
S214403E700793079B43F010030793079B13630023A6
S214403E800893089B132B06D800BF089B0133089362
S214403E90089B132BF8D9314A136B13F0100FFBD045
S214403EA02E4A136B0993099B43F04F030993099BD2
S214403EB023F001030993099B136300230A930A9B8B
S214403EC0132B06D800BF0A9B01330A930A9B132B79
S214403ED0F8D9224A136B13F0010FFBD1002988D082
S214403EE00122214B1A70BFF35F8F62B681E7012231
S214403EF0194B1A7091E729B101221B4B1A70BFF378
S214403F005F8F62B60422104B1A70144A136B0593E7
S214403F10059B43F04F030593059B23F00103059350
S214403F20059B136300230693069B132B06D800BFFE
S214403F30069B01330693069B132BF8D9074A136B4F
S214403F4013F0010FFBD154E760A201205CA20120D0
S214403F5044AB01205EA2012059A20120004004404B
S214403F60253D40006D3C4000FC01002038B5437CB8
S214403F7013F0100F16D00D46437C6FF304134374B2
S214403F8004687CB102F10C03074951F8233013F45E
S214403F90806F18BF42F080028168012D14BF002058
S214403FA00120A04738BD00BF0040044030B484B074
S214403FB0411E820002F1402202F58022136B146BF0
S214403FC013F0020F3FD014F0400F08D101EB8103ED
S214403FD0364C04EB83035C7C6FF383045C7401EB28
S214403FE08103324C04EB83035B7C13F00C0F35D11A
S214403FF0136B0093009B43F04F030093009B23F00A
S21440400002030093009B136300230193019B132B31
S21440401006D800BF019B01330193019B132BF8D9AF
S214404020136B13F0020FFBD100283CD003283AD084
S21440403001EB81011D4B03EB81035A7C012161F3A7
S21440404083025A742FE001EB8103184C04EB830380
S2144040505C7C012565F383045C74C0E7136B0293B4
S214404060029B43F04F030293029B23F040030293CC
S214404070029B136300230393039B132B06D800BFB6
S214404080039B01330393039B132BF8D9136B13F055
S214404090400FFBD101EB8101044B03EB81014B7CCC
S2144040A06FF383034B7404B030BC704764A20120A6
S2144040B02DE9F04182B08C468046461E06EB8602CD
S2144040C06C4B03EB82035B7CC3F38103002800F058
S2144040D0C48003280CBF012202229A4240F3BF80CC
S2144040E006EB8603634A02EB8303DA689B689A42D0
S2144040F009D306EB86015F4C04EB8101497C11F045
S214404100400F00F0B08006EB86055A4901EB850566
S2144041106C681444991A2B8AC3F30907B9423ABF0C
S2144041200F464FF0010E4FF0000E06EB8603514946
S21440413001EB83033A44DA60072F2BD904F10803D6
S2144041403D46820002F1402202F5802213F8081C08
S214404150116513F8071C116513F8061C116513F852
S214404160051C116513F8041C116513F8031C116532
S21440417013F8021C116513F8011C1165083D08333D
S214404180072DE3D8A7F1080323F0070308331C44A0
S21440419007F007074FB1E319374908F1140814F838
S2144041A0012B41F828209C42F9D106EB8603314A80
S2144041B002EB83035A7CC2F38101013161F383022F
S2144041C05A74BCF1000F20D0800000F1402000F56A
S2144041D08020036B0093009B43F04F030093009BAB
S2144041E043F010030093009B036300230193019B5D
S2144041F0132B06D800BF019B01330193019B132B61
S214404200F8D9036B13F0100FFBD0BEF1000F08D0A7
S21440421006EB8603174A02EB83035A7C6FF386123B
S2144042205A7406EB8603134A02EB8303DA689B68EC
S2144042309A421AD306EB86030E4A02EB83035B7C54
S21440424013F0400F13D106EB860602EB8606737C0E
S21440425043F080037374002002E001223DE7012012
S21440426002B0BDE8F0810020FAE70120F8E701201F
S214404270F6E700BF64A20120004004402DE9F04F5D
S214404280B3B0774B984720B9764BDB6913F4807F01
S21440429048D03020744B9847724B9B6913F4006F9C
S2144042A004D0704BDB6913F4006F44D16D4BDB696F
S2144042B013F0010F00F066826A4B1B6B13F0040F7D
S2144042C042D1684B1B6B13F0010F40F03181654BB8
S2144042D01B6B13F0020F40F02E81624B1B6B13F0EA
S2144042E0080F00F04F825F4A136B0093009B43F029
S2144042F04F030093009B23F008030093009B136337
S21440430000230193019B132B06D800BF019B01336A
S2144043100193019B132BF8D9524A136B13F0080FE5
S214404320FBD105E072B6BFF35F8F00224F4B1A7089
S21440433033B0BDE8F08F4FF400624A4B1A624C4BE4
S21440434098474C4B9847F3E74B4B1B7833BB454B52
S2144043501B6BC3F30A43082B25D0424A136B0293C8
S214404360029B43F04F030293029B23F00403029305
S214404370029B136300230393039B132B06D800BFB3
S214404380039B01330393039B132BF8D9354A136BD6
S21440439013F0040FFBD1394B9847C9E7384B984781
S2144043A0384B9847D3E7384B03F108002D490A6D40
S2144043B003F8012F8342FAD1344B984700BB294A71
S2144043C0136B0493049B43F04F030493049B23F026
S2144043D004030493049B136300230593059B132B4C
S2144043E006D800BF059B01330593059B132BF8D9D0
S2144043F01C4A136B13F0040FFBD1204B984797E7EA
S214404400234B93F90030002B48DB164A136B0A9374
S2144044100A9B43F04F030A930A9B23F004030A9334
S2144044200A9B136300230B930B9B132B06D800BFEA
S2144044300B9B01330B930B9B132BF8D9094A136B39
S21440444013F0040FFBD1124BDB88002B6DD00023FA
S214404450104A1380104A13800122074B1A7067E7F0
S214404460B9394000004004404D384000FC0100206F
S214404470252D40007582400060A20120853C40000A
S214404480253D40006D3C400043AB0120652D40007B
S21440449044AB01205EA201205CA201208E4A136B31
S2144044A00693069B43F04F030693069B43F0800318
S2144044B00693069B136300230793079B132B06D88C
S2144044C000BF079B01330793079B132BF8D9824AFB
S2144044D0136B13F0800FFBD07F4A136B0893089B37
S2144044E043F04F030893089B23F004030893089B6C
S2144044F0136300230993099B132B06D800BF099B1F
S21440450001330993099B132BF8D9734A136B13F0A5
S214404510040FFBD10023714A1380714A1380022294
S214404520704B1A70704B984702E7704B9847FFE6FF
S2144045306D4B9847FCE66B4B1B78012B29D0022B22
S21440454004D0042B02D06A4B984701E0694B984749
S214404550614A136B0C930C9B43F04F030C930C9BDC
S21440456023F002030C930C9B136300230D930D9BC7
S214404570132B06D800BF0D9B01330D930D9B132BB9
S214404580F8D9554A136B13F0020FFBD15A4B984794
S214404590CEE6514B196BC1F30A41584B9B89504AA2
S2144045A015886A189342BCBF5B1B99B2534B9868F8
S2144045B0284471B10246484C236D02F8013B131A59
S2144045C0DBB28B42F8D30D44ADB2454B1D8040293B
S2144045D027D04A4B9D815B6913B1984700284AD043
S2144045E03D4A136B1093109B43F04F031093109B60
S2144045F023F002031093109B136300231193119B27
S214404600132B06D800BF119B01331193119B132B1C
S214404610F8D9314A136B13F0020FFBD1334B98474E
S21440462086E6364BDA882D4B1B882B449A42D0DDE3
S214404630324B9B89AB423FD0274A136B1693169B4F
S21440464043F04F031693169B23F002031693169BD4
S214404650136300231793179B132B06D800BF179B93
S21440466001331793179B132BF8D91B4A136B13F080
S214404670020FFBD15CE61E4B9847174A136B0E930E
S2144046800E9B43F04F030E930E9B23F002030E93B4
S2144046900E9B136300230F930F9B132B06D800BF6C
S2144046A00F9B01330F930F9B132BF8D90A4A136BBA
S2144046B013F0020FFBD13BE6104B5B6903B3984700
S2144046C000283ED00549064A0B88108803440B80D4
S2144046D000231380B0E700BF004004405EA20120E4
S2144046E05CA2012060A20120353D4000D53C400040
S2144046F0853C4000253D40006D3C400044AB0120D9
S214404700914B9847914A136B1293129B43F04F0379
S2144047101293129B23F002031293129B13630023FF
S2144047201393139B132B06D800BF139B013313938D
S214404730139B132BF8D9854B1A6B12F0020FFBD143
S214404740F6E5814B9847814A136B1493149B43F0CC
S2144047504F031493149B23F002031493149B136388
S21440476000231593159B132B06D800BF159B0133CA
S2144047701593159B132BF8D9744B1A6B12F0020F36
S214404780FBD1D5E5724F3A460123DFF8C0E1184623
S214404790EDE108EB88036E4A02EB8303B3F810A002
S2144047A0CAF3090A276BC7F30A47002F00F06C824A
S2144047B008EB8802664B03EB8203D3F808E0DA681E
S2144047C0AEEB02005968B84240F2528208EB8800CD
S2144047D05F4B03EB8003D019D86038464FF0000B90
S2144047E011440B46226D03F8012B5A1A8242F9D324
S2144047F03046584B9847BBF1000F00F04882236B79
S21440480013F0200F7FF494AD504B5D61504B4FEA50
S214404810880202EB080103EB8101CB688B603246CD
S214404820002148464C4B984782E508EB8802484BA7
S21440483003EB8202537CC3F38101033161F38303AC
S2144048405374537C13F0200F00F0888013F00C0F45
S21440485038D0236B1893189B43F04F031893189B3C
S21440486043F010031893189B236300231993199B56
S214404870132B06D800BF199B01331993199B132B92
S214404880F8D9236B13F0100FFBD0236B1A931A9BA7
S21440489043F04F031A931A9B23F001031A931A9B73
S2144048A0236300231B931B9B132B06D800BF1B9B25
S2144048B001331B931B9B132BF8D9236B13F0010F6B
S2144048C0FBD135E5236B1C931C9B43F04F031C9395
S2144048D01C9B23F001031C931C9B236300231D9306
S2144048E01D9B132B06D800BF1D9B01331D931D9B9C
S2144048F0132BF8D9236B13F0010FFBD1236B1E93B8
S2144049001E9B43F04F031E931E9B43F020031E93B3
S2144049101E9B236300231F931F9B132B06D800BFA9
S2144049201F9B01331F931F9B132BF8D9236B13F048
S214404930200FFBD008EB8808054B03EB88035A7C16
S2144049406FF345125A74F3E4853C4000004004403F
S21440495064A20120AD3F40006D3F400013F0800F41
S21440496044D108EB8802A34B03EB8203DA689B68CA
S2144049709A424DD308EB88029E4B03EB82035B7C46
S21440498013F04C0F44D1EFF31083B3FA83F35B0973
S214404990209372B6BFF35F8F0022974B1A70209B0E
S2144049A0964A55612BB10122934B1A70BFF35F8F25
S2144049B062B6236B2193219B43F04F032193219BA7
S2144049C023F001032193219B236300232293229B00
S2144049D0132B06D800BF229B01332293229B132B16
S2144049E0F8D9236B13F0010FFBD1A1E41423814ABD
S2144049F003FB0823597C6FF3C7115974DA689A6031
S214404A007E4B5D613246002148467D4B9847A8E77D
S214404A10002E00F08580032E00F0828008EB88028E
S214404A20744B03EB82035B7C13F00C0F3CD0236B80
S214404A302393239B43F04F032393239B43F010037E
S214404A402393239B236300232493249B132B06D872
S214404A5000BF249B01332493249B132BF8D9236B4C
S214404A6013F0100FFBD0236B2593259B43F04F0389
S214404A702593259B23F001032593259B2363002341
S214404A802693269B132B06D800BF269B01332693DE
S214404A90269B132BF8D9236B13F0010FFBD1002173
S214404AA03046584B984743E401213046554B98478B
S214404AB000B3236B2793279B43F04F032793279BF3
S214404AC023F001032793279B236300232893289BE7
S214404AD0132B06D800BF289B01332893289B132B03
S214404AE0F8D9236B13F0010FFBD100213046454B1C
S214404AF098471DE414233F4A03FB082898F81120E2
S214404B006FF3C71288F81120D8F80C30C8F8083070
S214404B103A4B5D61324600214846394B9847C8E7D4
S214404B2001213046374B9847236B2993299B43F006
S214404B304F032993299B23F001032993299B236341
S214404B4000232A932A9B132B06D800BF2A9B0133A7
S214404B502A932A9B132BF8D9236B13F0010FFBD112
S214404B60FFF7E6BB01331432062B00F09580DEB229
S214404B70DEF8181000FA03F52942F3D003F1FF38A7
S214404B8091469C0004F1402404F58024216B11F0EA
S214404B90420F7FF4FEAD216B11F0010F7FF445AE5E
S214404BA0216B11F0080FDDD0236B2B932B9B43F02A
S214404BB04F032B932B9B23F008032B932B9B2363B2
S214404BC000232C932C9B132B06D800BF2C9B013321
S214404BD02C932C9B132BF8D9236B13F0080FFBD187
S214404BE0236B03F4E063B3F5807F3FF4A1AB236B04
S214404BF0FFF79EBB64A20120FC0100200040044059
S214404C006D3F4000B14040007A4BDB6913F4005FD3
S214404C1047D0784C4FF41853236263610120764B9B
S214404C209847764B98474FF48073236223614FF43E
S214404C3000632361FFF77CBB6E4B4FF480721A62B1
S214404C405A614FF400521A614FF400721A614FF4E1
S214404C5080621A6130206A4B98470020664B98471E
S214404C60684B9847FFF764BB3046674B9847C6E5A6
S214404C7008EB880C654B03EB8C03C3F80CE000286C
S214404C80F2D04FF0010BABE530465F4B9847BA4544
S214404C903FF6B5ADFFF74CBB564B9B6913F4005F30
S214404CA0B2D1544B9B6913F4007F04D0514BDB695F
S214404CB013F4007FADD14F4B9B6913F4806F04D043
S214404CC04C4BDB6913F4806FA3D14A4B9B6913F4BA
S214404CD0807F04D0474BDB6913F4807FACD1454BD3
S214404CE0DB6913F4805F3FF423AB4FF48052414BB3
S214404CF01A6200240126464D0134E4B2224631466B
S214404D003846A8471437052CF6D1424B9847394BBE
S214404D105A6822F001025A605A6822F002025A602B
S214404D209A6842F480729A609A6822F07F029A608B
S214404D301A6B2E922E9A42F04F022E922E9A22F400
S214404D40074222F080022E922E9A42F400422E9281
S214404D502E9A1A6300232F932F9B132B06D800BF3F
S214404D602F9B01332F932F9B132BF8D9214A136B7C
S214404D7013F4004FFBD01F4A136B3093309B43F025
S214404D804F033093309B43F400433093309B136380
S214404D9000233193319B132B06D800BF319B013340
S214404DA03193319B132BF8D9124A136B13F4004FEF
S214404DB0FBD0EFF31083B3FA83F35B092D9372B6FF
S214404DC0BFF35F8F0022144B1A702D9B0121094AB6
S214404DD0116123B1104B1970BFF35F8F62B60F4B52
S214404DE09847044B4FF480721A614FF400621A6180
S214404DF0FFF79EBA00400440C93B4000698240002D
S214404E00A13840005D824000AD3F400064A20120D2
S214404E106D3F4000DD2C4000FC0100206D3C400012
S214404E2010B582B0EFF31083B3FA83F35B090193B6
S214404E3072B6BFF35F8F0022144B1A70019C01209C
S214404E40134B98473020134B9847134B5A6F22F416
S214404E5080725A675A6F42F400725A674FF48072F3
S214404E601A614FF400521A614FF400721A614FF4FF
S214404E7080621A614FF400621A612CB10122034B22
S214404E801A70BFF35F8F62B602B010BDFC010020FF
S214404E90C93B40004D3840000040044030B583B028
S214404EA0EFF31083B3FA83F35B09009372B6BFF354
S214404EB05F8F0024284B1C70009D284B984730205D
S214404EC0274B9847274B9847274B502283F8302349
S214404ED04FF480325A60234624489A00D11800EB9B
S214404EE08101497C1A4400EB820201F083016FF392
S214404EF0C71151740133052BEFD14FF480201C4B62
S214404F00984700221B4B1A701B4B1B78FF2B22D056
S214404F10EFF31083B3FA83F35B09019372B6BFF3E2
S214404F205F8F00220C4B1A700199134A1378013395
S214404F30137029B10122084B1A70BFF35F8F62B617
S214404F400E4B98472DB10122034B1A70BFF35F8F6B
S214404F5062B603B030BDFEE7FC0100204535400098
S214404F604D384000091A400000E100E064A20120EC
S214404F70A53940005AA2012030AB0120214E400006
S214404F80002070470D4B5A6822F001025A609A681A
S214404F9022F480729A60024670B1986820F07F00D2
S214404FA002F07F02104398609A6842F480729A60DA
S214404FB05A6842F001025A60704700BF0040044001
S214404FC0054B5B6813F0010F1DBF034B986800F05C
S214404FD07F000020704700BF00400440024B186826
S214404FE0C0F30A00704700BF0040044000207047EE
S214404FF0014B98609981704744AB012000F00F0345
S214405000052B00F28E80F0B585B09C0004F140245C
S21440501004F58024256B15F4004F40F0848001F0A1
S2144050200305012D73D01D1FEDB2022D34BF4FF482
S2144050300075402595427BDB40B25E1E06EB860738
S2144050403C4D05EB870505F11007B5F810E062F317
S214405050090EA5F810E06A7C02F07F026FF3451255
S2144050606A74002858DB344EB56A01229A401543CC
S214405070B56200230193019B132B06D800BF019B0A
S21440508001330193019B132BF8D92B4DAB6A1A427F
S214405090FCD0294DAB6A23EA0203AB62002301939E
S2144050A0019B132B06D800BF019B01330193019B44
S2144050B0132BF8D9236B0293029B43F04F030293C2
S2144050C0029B23F4074323F08003029300284FEA11
S2144050D0012202F44072B4BF42F4044242F4004259
S2144050E0029B13430293029B236300230393039B79
S2144050F0132B06D800BF039B01330393039B132B4C
S214405100F8D9236B32EA0303FBD101200CE06BB1E4
S214405110032B88D1002007E07A786FF383027A70F9
S214405120A1E700207047002005B0F0BD0020FBE757
S2144051300020F9E764A201200040044000F00F027E
S214405140052A2ED800B583B0910001F1402101F523
S21440515080210B6B0093009B43F04F030093009B12
S21440516023F400430093009B0B6300230193019BB1
S214405170132B06D800BF019B01330193019B132BD1
S214405180F8D90B6B13F4004FFBD1501E00EB800098
S2144051900121044B03EB8000034B984703B05DF8B6
S2144051A004FB704764A201206D3F400000F00F00F2
S2144051B0052815D8431E03EB83030A4A02EB8303F4
S2144051C05B7C13F0200F09D10C30074B53F820308E
S2144051D013F0280F14BF01200020704701207047AD
S2144051E00020704764A2012000400440F0B585B01E
S2144051F000F00F05052D7AD8EFF31083B3FA83F34A
S2144052005B09039372B6BFF35F8F00223A4B1A7066
S214405210039E10F0800F41D129463848384FB84792
S21440522029463848B847AC0004F1402404F58024A9
S214405230226B29463448B847236B0193019B43F0C1
S2144052404F030193019B43F020030193019B23638B
S21440525000230293029B132B06D800BF029B013308
S2144052600293029B132BF8D9236B13F0200FFBD02D
S214405270226B29462548224B98470123AB40244AB7
S21440528013612EB101221C4B1A70BFF35F8F62B6BA
S214405290294620481A4B9847012029E06B1E05F105
S2144052A00C021B4951F8222012F0100F09D103EBD3
S2144052B08302194901EB8202527CC2F38102012A21
S2144052C0AADD03EB8302144B03EB82035A7C42F0C5
S2144052D020025A74012303FA05F50D4B1D614EB1A9
S2144052E00120054B1870BFF35F8F62B600E00020C8
S2144052F005B0F0BD0120FBE7FC010020D0B6400021
S2144053009583400038B7400074B74000A4B74000CB
S21440531000400440D4B7400064A20120F0B587B0F6
S21440532000F00F05052D00F2B9806E1E06EB8602D2
S2144053305C4B03EB82035A7C6FF345125A74AC0005
S21440534004F1402404F58024236B13F0200F01D190
S2144053500120A4E029465448544FB84729465448AB
S214405360B847226B29465348B847236B0193019BA5
S21440537043F04F030193019B23F020030193019BCD
S214405380236300230293029B132B06D800BF029B85
S21440539001330293029B132BF8D9236B13F0200F93
S2144053A0FBD1226B29464448404FB84729464348DC
S2144053B0B847226B29463F48B84741498B6A012285
S2144053C0AA4013438B6200230393039B132B06D8F8
S2144053D000BF039B01330393039B132BF8D9384933
S2144053E08B6A1A42FCD036498B6A23EA02028A62EA
S2144053F000230393039B132B06D800BF039B013364
S2144054000393039B132BF8D9226B29462A48274F30
S214405410B84729462B48B847226B29462548B847FF
S214405420236B0493049B43F04F030493049B23F0A5
S21440543008030493049B236300230593059B132BC7
S21440544006D800BF059B01330593059B132BF8D95F
S214405450236B13F0080FFBD1226B29461648134BDB
S214405460984706EB86030F4A02EB83035B7C13F0F8
S214405470100F05D1294614480C4B984701200EE0E2
S2144054801146B200931901EB8303587C6FF3041066
S2144054905874164451F826309847EBE7002007B07A
S2144054A0F0BD00BF64A20120D0B540009583400007
S2144054B00CB6400074B74000A4B740003CB640006D
S2144054C00040044064B6400088B64000F0B583B063
S2144054D000F00F07052F00F2A280BC0004F1402424
S2144054E004F58024256B15F4004F00F09B807D1E4C
S2144054F005EB850E504E06EB8E06767C16F0200F9A
S21440550040F09280266B16F0200F40F08F80EFF32D
S2144055101086B6FA86F67609009672B6BFF35F8FA7
S2144055204FF0000E454E86F800E0DDF800C005EB73
S214405530850E414E06EB8E06767C16F0100F0AD08E
S214405540BCF1000F74D001223C4B1A70BFF35F8F42
S21440555062B6002064E005EB850E374E06EB8E06FD
S21440556096F811E04EF0100E86F811E0BCF1000FF0
S21440557007D04FF0010E314E86F800E0BFF35F8F44
S21440558062B6DFF8B4C005EB8506B6000CEB060E37
S214405590CEF80420CEF808300022CEF80C20089A28
S2144055A04CF8062011B9B3FA83F14909224AAE00F5
S2144055B0731902EB83035B7C61F38613354402EB7D
S2144055C085026FF3C7135374EFF31083B3FA83F374
S2144055D05B09019372B6BFF35F8F0022174B1A70B8
S2144055E0019D0123BB40164A136110F0800F07D17E
S2144055F005B30120114B1870BFF35F8F62B60FE002
S214405600236B13F0110FF3D1012138460D4B984709
S2144056100028EDD0002138460A4B9847E8E700209E
S21440562003B0F0BD0020FBE70020F9E70020F7E7D5
S2144056300020F5E70120F3E764A20120FC010020EA
S21440564000400440B1404000F0B58BB000F00F047D
S214405650052C59D8EFF31083B3FA83F35B0909930B
S21440566072B6BFF35F8F0022704B1A70099B0125FC
S214405670A5406F4A55612BB101226C4B1A70BFF39F
S2144056805F8F62B610F0800F40D1A60006F140262C
S21440569006F58026336B13F0420F06D0654F204642
S2144056A0B847336B13F0420FF9D1614A936A2B43E4
S2144056B0936200230893089B132B06D800BF089BD1
S2144056C001330893089B132BF8D9594A936A1D4215
S2144056D0FCD0574A936A23EA05059562002308934F
S2144056E0089B132B06D800BF089B01330893089BE2
S2144056F0132BF8D9601E00EB8000224601214E4B4A
S21440570003EB80004D4B98470BB0F0BDA20002F172
S214405710402202F58022136B13F0100F5FD0002C4E
S21440572041D0032C3FD0136B0093009B43F04F03B4
S2144057300093009B23F010030093009B1363002309
S2144057400193019B132B06D800BF019B01330193A5
S214405750019B132BF8D9136B13F0100FFBD1136B6F
S21440576013F0100FFBD1136B0293029B43F04F03D1
S2144057700293029B43F010030293029B13630023A1
S2144057800393039B132B06D800BF039B013303935D
S214405790039B132BF8D9136B13F0100FFBD0136B2E
S2144057A013F0100FFBD0136B0493049B43F04F038E
S2144057B00493049B23F010030493049B1363002379
S2144057C00593059B132B06D800BF059B0133059315
S2144057D0059B132BF8D9136B13F0100FFBD1136BEB
S2144057E00693069B43F04F030693069B23F0010364
S2144057F00693069B136300230793079B132B06D839
S21440580000BF079B01330793079B132BF8D9136BF5
S21440581013F0010FFBD1631E03EB8302064B03EB31
S21440582082035A7C6FF383025A743EE7FC010020E1
S21440583000400440AD3F400064A201206D3F400060
S21440584000F00F0005282BD838B5830003F140231D
S21440585003F580231A6B12F4004F23D0013800EB77
S2144058608004124A02EB8402527C12F0100F1BD1C5
S2144058701B6B13F0200F02D112F0200F0DD00B4DF2
S2144058808200131805EB83035C7C44F010045C74C0
S214405890104445F82010012038BD8847012038BD07
S2144058A000207047002038BD002038BD64A201208B
S2144058B010B40B01934214D9C9004B0803EBC20243
